{"contracts/LoanManagerStorage.sol":{"LoanManagerStorage":{"abi":[{"anonymous":false,"inputs":[{"indexed":true,"internalType":"address","name":"asset","type":"address"},{"indexed":false,"internalType":"uint256","name":"amount","type":"uint256"},{"indexed":false,"internalType":"uint256","name":"lTokens","type":"uint256"},{"indexed":false,"internalType":"uint256","name":"mapleShares","type":"uint256"}],"name":"Deposit","type":"event"},{"anonymous":false,"inputs":[{"indexed":true,"internalType":"address","name":"asset","type":"address"},{"indexed":false,"internalType":"uint256","name":"shares","type":"uint256"},{"indexed":false,"internalType":"uint256","name":"tokensReceived","type":"uint256"}],"name":"Redeem","type":"event"},{"anonymous":false,"inputs":[{"indexed":true,"internalType":"address","name":"asset","type":"address"},{"indexed":false,"internalType":"uint256","name":"lTokens","type":"uint256"},{"indexed":false,"internalType":"uint256","name":"escrowedShares","type":"uint256"}],"name":"RequestRedeem","type":"event"},{"inputs":[],"name":"MAPLE_POOL_MANAGER_USDC","outputs":[{"internalType":"address","name":"","type":"address"}],"stateMutability":"view","type":"function"},{"inputs":[],"name":"MAPLE_POOL_MANAGER_USDT","outputs":[{"internalType":"address","name":"","type":"address"}],"stateMutability":"view","type":"function"},{"inputs":[],"name":"MAPLE_WITHDRAWAL_MANAGER_USDC","outputs":[{"internalType":"address","name":"","type":"address"}],"stateMutability":"view","type":"function"},{"inputs":[],"name":"MAPLE_WITHDRAWAL_MANAGER_USDT","outputs":[{"internalType":"address","name":"","type":"address"}],"stateMutability":"view","type":"function"},{"inputs":[],"name":"adjustedDecimals","outputs":[{"internalType":"uint256","name":"","type":"uint256"}],"stateMutability":"view","type":"function"},{"inputs":[],"name":"admin","outputs":[{"internalType":"address","name":"","type":"address"}],"stateMutability":"view","type":"function"},{"inputs":[{"internalType":"address","name":"","type":"address"}],"name":"assetsRedeemed","outputs":[{"internalType":"uint256","name":"","type":"uint256"}],"stateMutability":"view","type":"function"},{"inputs":[{"internalType":"address","name":"","type":"address"}],"name":"awaitingRedemption","outputs":[{"internalType":"bool","name":"","type":"bool"}],"stateMutability":"view","type":"function"},{"inputs":[{"internalType":"address","name":"","type":"address"}],"name":"escrowedMapleShares","outputs":[{"internalType":"uint256","name":"","type":"uint256"}],"stateMutability":"view","type":"function"},{"inputs":[],"name":"lUSDC","outputs":[{"internalType":"contract LMTokenLP","name":"","type":"address"}],"stateMutability":"view","type":"function"},{"inputs":[],"name":"lUSDT","outputs":[{"internalType":"contract LMTokenLP","name":"","type":"address"}],"stateMutability":"view","type":"function"},{"inputs":[],"name":"mapleUSDCPool","outputs":[{"internalType":"address","name":"","type":"address"}],"stateMutability":"view","type":"function"},{"inputs":[],"name":"mapleUSDTPool","outputs":[{"internalType":"address","name":"","type":"address"}],"stateMutability":"view","type":"function"},{"inputs":[],"name":"nstblHub","outputs":[{"internalType":"address","name":"","type":"address"}],"stateMutability":"view","type":"function"},{"inputs":[{"internalType":"address","name":"","type":"address"}],"name":"totalAssetsReceived","outputs":[{"internalType":"uint256","name":"","type":"uint256"}],"stateMutability":"view","type":"function"},{"inputs":[{"internalType":"address","name":"","type":"address"}],"name":"totalLPTokensBurned","outputs":[{"internalType":"uint256","name":"","type":"uint256"}],"stateMutability":"view","type":"function"},{"inputs":[{"internalType":"address","name":"","type":"address"}],"name":"totalLPTokensMinted","outputs":[{"internalType":"uint256","name":"","type":"uint256"}],"stateMutability":"view","type":"function"},{"inputs":[{"internalType":"address","name":"","type":"address"}],"name":"totalSharesReceived","outputs":[{"internalType":"uint256","name":"","type":"uint256"}],"stateMutability":"view","type":"function"},{"inputs":[],"name":"usdc","outputs":[{"internalType":"address","name":"","type":"address"}],"stateMutability":"view","type":"function"},{"inputs":[],"name":"usdt","outputs":[{"internalType":"address","name":"","type":"address"}],"stateMutability":"view","type":"function"}],"evm":{"bytecode":{"linkReferences":{},"object":"61020060405273219654a61a0bc394055652986be403fa14405bb873ffffffffffffffffffffffffffffffffffffffff166101009073ffffffffffffffffffffffffffffffffffffffff1681525073e76b219f83e887e2503e14c343bb7e0b62a7af5d73ffffffffffffffffffffffffffffffffffffffff166101209073ffffffffffffffffffffffffffffffffffffffff16815250731146691782c089bcf0b19acb8620943a35eebd1273ffffffffffffffffffffffffffffffffffffffff166101409073ffffffffffffffffffffffffffffffffffffffff1681525073f0a66f70064ad3198abb35aae26b1eeeaea62c4b73ffffffffffffffffffffffffffffffffffffffff166101609073ffffffffffffffffffffffffffffffffffffffff16815250348015610130575f80fd5b5060805160a05160c05160e05161010051610120516101405161016051610180516101a0516101c0516101e0516108316101b45f395f61062c01525f6105c001525f61057801525f61059c01525f61040601525f61055401525f6104e301525f61065001525f61060801525f6105e401525f61042a01525f61047801526108315ff3fe608060405234801561000f575f80fd5b506004361061012a575f3560e01c8063ba3a3550116100ab578063eab2ed001161006f578063eab2ed001461036e578063ed2872211461038c578063f0433052146103aa578063f851a440146103c8578063fe7a2369146103e65761012a565b8063ba3a3550146102b4578063cbaad084146102e4578063cf0d794314610314578063da1d890e14610332578063dbab4c28146103505761012a565b806350f045a6116100f257806350f045a6146101e857806379bcb3b4146102185780638907c5ab14610248578063aba5e33e14610278578063b376cc91146102965761012a565b806313e70b871461012e5780632f48ab7d1461014c57806333a7b07a1461016a5780633e2b583b1461019a5780633e413bee146101ca575b5f80fd5b610136610404565b60405161014391906106b1565b60405180910390f35b610154610428565b60405161016191906106b1565b60405180910390f35b610184600480360381019061017f91906106f8565b61044c565b604051610191919061073b565b60405180910390f35b6101b460048036038101906101af91906106f8565b610461565b6040516101c1919061073b565b60405180910390f35b6101d2610476565b6040516101df91906106b1565b60405180910390f35b61020260048036038101906101fd91906106f8565b61049a565b60405161020f919061073b565b60405180910390f35b610232600480360381019061022d91906106f8565b6104af565b60405161023f919061073b565b60405180910390f35b610262600480360381019061025d91906106f8565b6104c4565b60405161026f919061076e565b60405180910390f35b6102806104e1565b60405161028d91906106b1565b60405180910390f35b61029e610505565b6040516102ab91906106b1565b60405180910390f35b6102ce60048036038101906102c991906106f8565b610528565b6040516102db919061073b565b60405180910390f35b6102fe60048036038101906102f991906106f8565b61053d565b60405161030b919061073b565b60405180910390f35b61031c610552565b60405161032991906106b1565b60405180910390f35b61033a610576565b60405161034791906107e2565b60405180910390f35b61035861059a565b60405161036591906107e2565b60405180910390f35b6103766105be565b604051610383919061073b565b60405180910390f35b6103946105e2565b6040516103a191906106b1565b60405180910390f35b6103b2610606565b6040516103bf91906106b1565b60405180910390f35b6103d061062a565b6040516103dd91906106b1565b60405180910390f35b6103ee61064e565b6040516103fb91906106b1565b60405180910390f35b7f000000000000000000000000000000000000000000000000000000000000000081565b7f000000000000000000000000000000000000000000000000000000000000000081565b6002602052805f5260405f205f915090505481565b6006602052805f5260405f205f915090505481565b7f000000000000000000000000000000000000000000000000000000000000000081565b6007602052805f5260405f205f915090505481565b6004602052805f5260405f205f915090505481565b6001602052805f5260405f205f915054906101000a900460ff1681565b7f000000000000000000000000000000000000000000000000000000000000000081565b5f8054906101000a900473ffffffffffffffffffffffffffffffffffffffff1681565b6005602052805f5260405f205f915090505481565b6003602052805f5260405f205f915090505481565b7f000000000000000000000000000000000000000000000000000000000000000081565b7f000000000000000000000000000000000000000000000000000000000000000081565b7f000000000000000000000000000000000000000000000000000000000000000081565b7f000000000000000000000000000000000000000000000000000000000000000081565b7f000000000000000000000000000000000000000000000000000000000000000081565b7f000000000000000000000000000000000000000000000000000000000000000081565b7f000000000000000000000000000000000000000000000000000000000000000081565b7f000000000000000000000000000000000000000000000000000000000000000081565b5f73ffffffffffffffffffffffffffffffffffffffff82169050919050565b5f61069b82610672565b9050919050565b6106ab81610691565b82525050565b5f6020820190506106c45f8301846106a2565b92915050565b5f80fd5b6106d781610691565b81146106e1575f80fd5b50565b5f813590506106f2816106ce565b92915050565b5f6020828403121561070d5761070c6106ca565b5b5f61071a848285016106e4565b91505092915050565b5f819050919050565b61073581610723565b82525050565b5f60208201905061074e5f83018461072c565b92915050565b5f8115159050919050565b61076881610754565b82525050565b5f6020820190506107815f83018461075f565b92915050565b5f819050919050565b5f6107aa6107a56107a084610672565b610787565b610672565b9050919050565b5f6107bb82610790565b9050919050565b5f6107cc826107b1565b9050919050565b6107dc816107c2565b82525050565b5f6020820190506107f55f8301846107d3565b9291505056fea2646970667358221220f8b4cb734d585a2743cb0ff2c1130fb901fa8ec8f442e6798654c520c8b251e064736f6c63430008150033","opcodes":"PUSH2 0x200 PUSH1 0x40 MSTORE PUSH20 0x219654A61A0BC394055652986BE403FA14405BB8 PUSH20 0xFFFFFFFFFFFFFFFFFFFFFFFFFFFFFFFFFFFFFFFF AND PUSH2 0x100 SWAP1 PUSH20 0xFFFFFFFFFFFFFFFFFFFFFFFFFFFFFFFFFFFFFFFF AND DUP2 MSTORE POP PUSH20 0xE76B219F83E887E2503E14C343BB7E0B62A7AF5D PUSH20 0xFFFFFFFFFFFFFFFFFFFFFFFFFFFFFFFFFFFFFFFF AND PUSH2 0x120 SWAP1 PUSH20 0xFFFFFFFFFFFFFFFFFFFFFFFFFFFFFFFFFFFFFFFF AND DUP2 MSTORE POP PUSH20 0x1146691782C089BCF0B19ACB8620943A35EEBD12 PUSH20 0xFFFFFFFFFFFFFFFFFFFFFFFFFFFFFFFFFFFFFFFF AND PUSH2 0x140 SWAP1 PUSH20 0xFFFFFFFFFFFFFFFFFFFFFFFFFFFFFFFFFFFFFFFF AND DUP2 MSTORE POP PUSH20 0xF0A66F70064AD3198ABB35AAE26B1EEEAEA62C4B PUSH20 0xFFFFFFFFFFFFFFFFFFFFFFFFFFFFFFFFFFFFFFFF AND PUSH2 0x160 SWAP1 PUSH20 0xFFFFFFFFFFFFFFFFFFFFFFFFFFFFFFFFFFFFFFFF AND DUP2 MSTORE POP CALLVALUE DUP1 ISZERO PUSH2 0x130 JUMPI PUSH0 DUP1 REVERT JUMPDEST POP PUSH1 0x80 MLOAD PUSH1 0xA0 MLOAD PUSH1 0xC0 MLOAD PUSH1 0xE0 MLOAD PUSH2 0x100 MLOAD PUSH2 0x120 MLOAD PUSH2 0x140 MLOAD PUSH2 0x160 MLOAD PUSH2 0x180 MLOAD PUSH2 0x1A0 MLOAD PUSH2 0x1C0 MLOAD PUSH2 0x1E0 MLOAD PUSH2 0x831 PUSH2 0x1B4 PUSH0 CODECOPY PUSH0 PUSH2 0x62C ADD MSTORE PUSH0 PUSH2 0x5C0 ADD MSTORE PUSH0 PUSH2 0x578 ADD MSTORE PUSH0 PUSH2 0x59C ADD MSTORE PUSH0 PUSH2 0x406 ADD MSTORE PUSH0 PUSH2 0x554 ADD MSTORE PUSH0 PUSH2 0x4E3 ADD MSTORE PUSH0 PUSH2 0x650 ADD MSTORE PUSH0 PUSH2 0x608 ADD MSTORE PUSH0 PUSH2 0x5E4 ADD MSTORE PUSH0 PUSH2 0x42A ADD MSTORE PUSH0 PUSH2 0x478 ADD MSTORE PUSH2 0x831 PUSH0 RETURN INVALID PUSH1 0x80 PUSH1 0x40 MSTORE CALLVALUE DUP1 ISZERO PUSH2 0xF JUMPI PUSH0 DUP1 REVERT JUMPDEST POP PUSH1 0x4 CALLDATASIZE LT PUSH2 0x12A JUMPI PUSH0 CALLDATALOAD PUSH1 0xE0 SHR DUP1 PUSH4 0xBA3A3550 GT PUSH2 0xAB JUMPI DUP1 PUSH4 0xEAB2ED00 GT PUSH2 0x6F JUMPI DUP1 PUSH4 0xEAB2ED00 EQ PUSH2 0x36E JUMPI DUP1 PUSH4 0xED287221 EQ PUSH2 0x38C JUMPI DUP1 PUSH4 0xF0433052 EQ PUSH2 0x3AA JUMPI DUP1 PUSH4 0xF851A440 EQ PUSH2 0x3C8 JUMPI DUP1 PUSH4 0xFE7A2369 EQ PUSH2 0x3E6 JUMPI PUSH2 0x12A JUMP JUMPDEST DUP1 PUSH4 0xBA3A3550 EQ PUSH2 0x2B4 JUMPI DUP1 PUSH4 0xCBAAD084 EQ PUSH2 0x2E4 JUMPI DUP1 PUSH4 0xCF0D7943 EQ PUSH2 0x314 JUMPI DUP1 PUSH4 0xDA1D890E EQ PUSH2 0x332 JUMPI DUP1 PUSH4 0xDBAB4C28 EQ PUSH2 0x350 JUMPI PUSH2 0x12A JUMP JUMPDEST DUP1 PUSH4 0x50F045A6 GT PUSH2 0xF2 JUMPI DUP1 PUSH4 0x50F045A6 EQ PUSH2 0x1E8 JUMPI DUP1 PUSH4 0x79BCB3B4 EQ PUSH2 0x218 JUMPI DUP1 PUSH4 0x8907C5AB EQ PUSH2 0x248 JUMPI DUP1 PUSH4 0xABA5E33E EQ PUSH2 0x278 JUMPI DUP1 PUSH4 0xB376CC91 EQ PUSH2 0x296 JUMPI PUSH2 0x12A JUMP JUMPDEST DUP1 PUSH4 0x13E70B87 EQ PUSH2 0x12E JUMPI DUP1 PUSH4 0x2F48AB7D EQ PUSH2 0x14C JUMPI DUP1 PUSH4 0x33A7B07A EQ PUSH2 0x16A JUMPI DUP1 PUSH4 0x3E2B583B EQ PUSH2 0x19A JUMPI DUP1 PUSH4 0x3E413BEE EQ PUSH2 0x1CA JUMPI JUMPDEST PUSH0 DUP1 REVERT JUMPDEST PUSH2 0x136 PUSH2 0x404 JUMP JUMPDEST PUSH1 0x40 MLOAD PUSH2 0x143 SWAP2 SWAP1 PUSH2 0x6B1 JUMP JUMPDEST PUSH1 0x40 MLOAD DUP1 SWAP2 SUB SWAP1 RETURN JUMPDEST PUSH2 0x154 PUSH2 0x428 JUMP JUMPDEST PUSH1 0x40 MLOAD PUSH2 0x161 SWAP2 SWAP1 PUSH2 0x6B1 JUMP JUMPDEST PUSH1 0x40 MLOAD DUP1 SWAP2 SUB SWAP1 RETURN JUMPDEST PUSH2 0x184 PUSH1 0x4 DUP1 CALLDATASIZE SUB DUP2 ADD SWAP1 PUSH2 0x17F SWAP2 SWAP1 PUSH2 0x6F8 JUMP JUMPDEST PUSH2 0x44C JUMP JUMPDEST PUSH1 0x40 MLOAD PUSH2 0x191 SWAP2 SWAP1 PUSH2 0x73B JUMP JUMPDEST PUSH1 0x40 MLOAD DUP1 SWAP2 SUB SWAP1 RETURN JUMPDEST PUSH2 0x1B4 PUSH1 0x4 DUP1 CALLDATASIZE SUB DUP2 ADD SWAP1 PUSH2 0x1AF SWAP2 SWAP1 PUSH2 0x6F8 JUMP JUMPDEST PUSH2 0x461 JUMP JUMPDEST PUSH1 0x40 MLOAD PUSH2 0x1C1 SWAP2 SWAP1 PUSH2 0x73B JUMP JUMPDEST PUSH1 0x40 MLOAD DUP1 SWAP2 SUB SWAP1 RETURN JUMPDEST PUSH2 0x1D2 PUSH2 0x476 JUMP JUMPDEST PUSH1 0x40 MLOAD PUSH2 0x1DF SWAP2 SWAP1 PUSH2 0x6B1 JUMP JUMPDEST PUSH1 0x40 MLOAD DUP1 SWAP2 SUB SWAP1 RETURN JUMPDEST PUSH2 0x202 PUSH1 0x4 DUP1 CALLDATASIZE SUB DUP2 ADD SWAP1 PUSH2 0x1FD SWAP2 SWAP1 PUSH2 0x6F8 JUMP JUMPDEST PUSH2 0x49A JUMP JUMPDEST PUSH1 0x40 MLOAD PUSH2 0x20F SWAP2 SWAP1 PUSH2 0x73B JUMP JUMPDEST PUSH1 0x40 MLOAD DUP1 SWAP2 SUB SWAP1 RETURN JUMPDEST PUSH2 0x232 PUSH1 0x4 DUP1 CALLDATASIZE SUB DUP2 ADD SWAP1 PUSH2 0x22D SWAP2 SWAP1 PUSH2 0x6F8 JUMP JUMPDEST PUSH2 0x4AF JUMP JUMPDEST PUSH1 0x40 MLOAD PUSH2 0x23F SWAP2 SWAP1 PUSH2 0x73B JUMP JUMPDEST PUSH1 0x40 MLOAD DUP1 SWAP2 SUB SWAP1 RETURN JUMPDEST PUSH2 0x262 PUSH1 0x4 DUP1 CALLDATASIZE SUB DUP2 ADD SWAP1 PUSH2 0x25D SWAP2 SWAP1 PUSH2 0x6F8 JUMP JUMPDEST PUSH2 0x4C4 JUMP JUMPDEST PUSH1 0x40 MLOAD PUSH2 0x26F SWAP2 SWAP1 PUSH2 0x76E JUMP JUMPDEST PUSH1 0x40 MLOAD DUP1 SWAP2 SUB SWAP1 RETURN JUMPDEST PUSH2 0x280 PUSH2 0x4E1 JUMP JUMPDEST PUSH1 0x40 MLOAD PUSH2 0x28D SWAP2 SWAP1 PUSH2 0x6B1 JUMP JUMPDEST PUSH1 0x40 MLOAD DUP1 SWAP2 SUB SWAP1 RETURN JUMPDEST PUSH2 0x29E PUSH2 0x505 JUMP JUMPDEST PUSH1 0x40 MLOAD PUSH2 0x2AB SWAP2 SWAP1 PUSH2 0x6B1 JUMP JUMPDEST PUSH1 0x40 MLOAD DUP1 SWAP2 SUB SWAP1 RETURN JUMPDEST PUSH2 0x2CE PUSH1 0x4 DUP1 CALLDATASIZE SUB DUP2 ADD SWAP1 PUSH2 0x2C9 SWAP2 SWAP1 PUSH2 0x6F8 JUMP JUMPDEST PUSH2 0x528 JUMP JUMPDEST PUSH1 0x40 MLOAD PUSH2 0x2DB SWAP2 SWAP1 PUSH2 0x73B JUMP JUMPDEST PUSH1 0x40 MLOAD DUP1 SWAP2 SUB SWAP1 RETURN JUMPDEST PUSH2 0x2FE PUSH1 0x4 DUP1 CALLDATASIZE SUB DUP2 ADD SWAP1 PUSH2 0x2F9 SWAP2 SWAP1 PUSH2 0x6F8 JUMP JUMPDEST PUSH2 0x53D JUMP JUMPDEST PUSH1 0x40 MLOAD PUSH2 0x30B SWAP2 SWAP1 PUSH2 0x73B JUMP JUMPDEST PUSH1 0x40 MLOAD DUP1 SWAP2 SUB SWAP1 RETURN JUMPDEST PUSH2 0x31C PUSH2 0x552 JUMP JUMPDEST PUSH1 0x40 MLOAD PUSH2 0x329 SWAP2 SWAP1 PUSH2 0x6B1 JUMP JUMPDEST PUSH1 0x40 MLOAD DUP1 SWAP2 SUB SWAP1 RETURN JUMPDEST PUSH2 0x33A PUSH2 0x576 JUMP JUMPDEST PUSH1 0x40 MLOAD PUSH2 0x347 SWAP2 SWAP1 PUSH2 0x7E2 JUMP JUMPDEST PUSH1 0x40 MLOAD DUP1 SWAP2 SUB SWAP1 RETURN JUMPDEST PUSH2 0x358 PUSH2 0x59A JUMP JUMPDEST PUSH1 0x40 MLOAD PUSH2 0x365 SWAP2 SWAP1 PUSH2 0x7E2 JUMP JUMPDEST PUSH1 0x40 MLOAD DUP1 SWAP2 SUB SWAP1 RETURN JUMPDEST PUSH2 0x376 PUSH2 0x5BE JUMP JUMPDEST PUSH1 0x40 MLOAD PUSH2 0x383 SWAP2 SWAP1 PUSH2 0x73B JUMP JUMPDEST PUSH1 0x40 MLOAD DUP1 SWAP2 SUB SWAP1 RETURN JUMPDEST PUSH2 0x394 PUSH2 0x5E2 JUMP JUMPDEST PUSH1 0x40 MLOAD PUSH2 0x3A1 SWAP2 SWAP1 PUSH2 0x6B1 JUMP JUMPDEST PUSH1 0x40 MLOAD DUP1 SWAP2 SUB SWAP1 RETURN JUMPDEST PUSH2 0x3B2 PUSH2 0x606 JUMP JUMPDEST PUSH1 0x40 MLOAD PUSH2 0x3BF SWAP2 SWAP1 PUSH2 0x6B1 JUMP JUMPDEST PUSH1 0x40 MLOAD DUP1 SWAP2 SUB SWAP1 RETURN JUMPDEST PUSH2 0x3D0 PUSH2 0x62A JUMP JUMPDEST PUSH1 0x40 MLOAD PUSH2 0x3DD SWAP2 SWAP1 PUSH2 0x6B1 JUMP JUMPDEST PUSH1 0x40 MLOAD DUP1 SWAP2 SUB SWAP1 RETURN JUMPDEST PUSH2 0x3EE PUSH2 0x64E JUMP JUMPDEST PUSH1 0x40 MLOAD PUSH2 0x3FB SWAP2 SWAP1 PUSH2 0x6B1 JUMP JUMPDEST PUSH1 0x40 MLOAD DUP1 SWAP2 SUB SWAP1 RETURN JUMPDEST PUSH32 0x0 DUP2 JUMP JUMPDEST PUSH32 0x0 DUP2 JUMP JUMPDEST PUSH1 0x2 PUSH1 0x20 MSTORE DUP1 PUSH0 MSTORE PUSH1 0x40 PUSH0 KECCAK256 PUSH0 SWAP2 POP SWAP1 POP SLOAD DUP2 JUMP JUMPDEST PUSH1 0x6 PUSH1 0x20 MSTORE DUP1 PUSH0 MSTORE PUSH1 0x40 PUSH0 KECCAK256 PUSH0 SWAP2 POP SWAP1 POP SLOAD DUP2 JUMP JUMPDEST PUSH32 0x0 DUP2 JUMP JUMPDEST PUSH1 0x7 PUSH1 0x20 MSTORE DUP1 PUSH0 MSTORE PUSH1 0x40 PUSH0 KECCAK256 PUSH0 SWAP2 POP SWAP1 POP SLOAD DUP2 JUMP JUMPDEST PUSH1 0x4 PUSH1 0x20 MSTORE DUP1 PUSH0 MSTORE PUSH1 0x40 PUSH0 KECCAK256 PUSH0 SWAP2 POP SWAP1 POP SLOAD DUP2 JUMP JUMPDEST PUSH1 0x1 PUSH1 0x20 MSTORE DUP1 PUSH0 MSTORE PUSH1 0x40 PUSH0 KECCAK256 PUSH0 SWAP2 POP SLOAD SWAP1 PUSH2 0x100 EXP SWAP1 DIV PUSH1 0xFF AND DUP2 JUMP JUMPDEST PUSH32 0x0 DUP2 JUMP JUMPDEST PUSH0 DUP1 SLOAD SWAP1 PUSH2 0x100 EXP SWAP1 DIV PUSH20 0xFFFFFFFFFFFFFFFFFFFFFFFFFFFFFFFFFFFFFFFF AND DUP2 JUMP JUMPDEST PUSH1 0x5 PUSH1 0x20 MSTORE DUP1 PUSH0 MSTORE PUSH1 0x40 PUSH0 KECCAK256 PUSH0 SWAP2 POP SWAP1 POP SLOAD DUP2 JUMP JUMPDEST PUSH1 0x3 PUSH1 0x20 MSTORE DUP1 PUSH0 MSTORE PUSH1 0x40 PUSH0 KECCAK256 PUSH0 SWAP2 POP SWAP1 POP SLOAD DUP2 JUMP JUMPDEST PUSH32 0x0 DUP2 JUMP JUMPDEST PUSH32 0x0 DUP2 JUMP JUMPDEST PUSH32 0x0 DUP2 JUMP JUMPDEST PUSH32 0x0 DUP2 JUMP JUMPDEST PUSH32 0x0 DUP2 JUMP JUMPDEST PUSH32 0x0 DUP2 JUMP JUMPDEST PUSH32 0x0 DUP2 JUMP JUMPDEST PUSH32 0x0 DUP2 JUMP JUMPDEST PUSH0 PUSH20 0xFFFFFFFFFFFFFFFFFFFFFFFFFFFFFFFFFFFFFFFF DUP3 AND SWAP1 POP SWAP2 SWAP1 POP JUMP JUMPDEST PUSH0 PUSH2 0x69B DUP3 PUSH2 0x672 JUMP JUMPDEST SWAP1 POP SWAP2 SWAP1 POP JUMP JUMPDEST PUSH2 0x6AB DUP2 PUSH2 0x691 JUMP JUMPDEST DUP3 MSTORE POP POP JUMP JUMPDEST PUSH0 PUSH1 0x20 DUP3 ADD SWAP1 POP PUSH2 0x6C4 PUSH0 DUP4 ADD DUP5 PUSH2 0x6A2 JUMP JUMPDEST SWAP3 SWAP2 POP POP JUMP JUMPDEST PUSH0 DUP1 REVERT JUMPDEST PUSH2 0x6D7 DUP2 PUSH2 0x691 JUMP JUMPDEST DUP2 EQ PUSH2 0x6E1 JUMPI PUSH0 DUP1 REVERT JUMPDEST POP JUMP JUMPDEST PUSH0 DUP2 CALLDATALOAD SWAP1 POP PUSH2 0x6F2 DUP2 PUSH2 0x6CE JUMP JUMPDEST SWAP3 SWAP2 POP POP JUMP JUMPDEST PUSH0 PUSH1 0x20 DUP3 DUP5 SUB SLT ISZERO PUSH2 0x70D JUMPI PUSH2 0x70C PUSH2 0x6CA JUMP JUMPDEST JUMPDEST PUSH0 PUSH2 0x71A DUP5 DUP3 DUP6 ADD PUSH2 0x6E4 JUMP JUMPDEST SWAP2 POP POP SWAP3 SWAP2 POP POP JUMP JUMPDEST PUSH0 DUP2 SWAP1 POP SWAP2 SWAP1 POP JUMP JUMPDEST PUSH2 0x735 DUP2 PUSH2 0x723 JUMP JUMPDEST DUP3 MSTORE POP POP JUMP JUMPDEST PUSH0 PUSH1 0x20 DUP3 ADD SWAP1 POP PUSH2 0x74E PUSH0 DUP4 ADD DUP5 PUSH2 0x72C JUMP JUMPDEST SWAP3 SWAP2 POP POP JUMP JUMPDEST PUSH0 DUP2 ISZERO ISZERO SWAP1 POP SWAP2 SWAP1 POP JUMP JUMPDEST PUSH2 0x768 DUP2 PUSH2 0x754 JUMP JUMPDEST DUP3 MSTORE POP POP JUMP JUMPDEST PUSH0 PUSH1 0x20 DUP3 ADD SWAP1 POP PUSH2 0x781 PUSH0 DUP4 ADD DUP5 PUSH2 0x75F JUMP JUMPDEST SWAP3 SWAP2 POP POP JUMP JUMPDEST PUSH0 DUP2 SWAP1 POP SWAP2 SWAP1 POP JUMP JUMPDEST PUSH0 PUSH2 0x7AA PUSH2 0x7A5 PUSH2 0x7A0 DUP5 PUSH2 0x672 JUMP JUMPDEST PUSH2 0x787 JUMP JUMPDEST PUSH2 0x672 JUMP JUMPDEST SWAP1 POP SWAP2 SWAP1 POP JUMP JUMPDEST PUSH0 PUSH2 0x7BB DUP3 PUSH2 0x790 JUMP JUMPDEST SWAP1 POP SWAP2 SWAP1 POP JUMP JUMPDEST PUSH0 PUSH2 0x7CC DUP3 PUSH2 0x7B1 JUMP JUMPDEST SWAP1 POP SWAP2 SWAP1 POP JUMP JUMPDEST PUSH2 0x7DC DUP2 PUSH2 0x7C2 JUMP JUMPDEST DUP3 MSTORE POP POP JUMP JUMPDEST PUSH0 PUSH1 0x20 DUP3 ADD SWAP1 POP PUSH2 0x7F5 PUSH0 DUP4 ADD DUP5 PUSH2 0x7D3 JUMP JUMPDEST SWAP3 SWAP2 POP POP JUMP INVALID LOG2 PUSH5 0x6970667358 0x22 SLT KECCAK256 0xF8 0xB4 0xCB PUSH20 0x4D585A2743CB0FF2C1130FB901FA8EC8F442E679 DUP7 SLOAD 0xC5 KECCAK256 0xC8 0xB2 MLOAD 0xE0 PUSH5 0x736F6C6343 STOP ADDMOD ISZERO STOP CALLER "},"methodIdentifiers":{"MAPLE_POOL_MANAGER_USDC()":"fe7a2369","MAPLE_POOL_MANAGER_USDT()":"aba5e33e","MAPLE_WITHDRAWAL_MANAGER_USDC()":"cf0d7943","MAPLE_WITHDRAWAL_MANAGER_USDT()":"13e70b87","adjustedDecimals()":"eab2ed00","admin()":"f851a440","assetsRedeemed(address)":"50f045a6","awaitingRedemption(address)":"8907c5ab","escrowedMapleShares(address)":"3e2b583b","lUSDC()":"dbab4c28","lUSDT()":"da1d890e","mapleUSDCPool()":"ed287221","mapleUSDTPool()":"f0433052","nstblHub()":"b376cc91","totalAssetsReceived(address)":"33a7b07a","totalLPTokensBurned(address)":"ba3a3550","totalLPTokensMinted(address)":"79bcb3b4","totalSharesReceived(address)":"cbaad084","usdc()":"3e413bee","usdt()":"2f48ab7d"}},"storageLayout":{"storage":[{"astId":2671,"contract":"contracts/LoanManagerStorage.sol:LoanManagerStorage","label":"nstblHub","offset":0,"slot":"0","type":"t_address"},{"astId":2675,"contract":"contracts/LoanManagerStorage.sol:LoanManagerStorage","label":"awaitingRedemption","offset":0,"slot":"1","type":"t_mapping(t_address,t_bool)"},{"astId":2679,"contract":"contracts/LoanManagerStorage.sol:LoanManagerStorage","label":"totalAssetsReceived","offset":0,"slot":"2","type":"t_mapping(t_address,t_uint256)"},{"astId":2683,"contract":"contracts/LoanManagerStorage.sol:LoanManagerStorage","label":"totalSharesReceived","offset":0,"slot":"3","type":"t_mapping(t_address,t_uint256)"},{"astId":2687,"contract":"contracts/LoanManagerStorage.sol:LoanManagerStorage","label":"totalLPTokensMinted","offset":0,"slot":"4","type":"t_mapping(t_address,t_uint256)"},{"astId":2691,"contract":"contracts/LoanManagerStorage.sol:LoanManagerStorage","label":"totalLPTokensBurned","offset":0,"slot":"5","type":"t_mapping(t_address,t_uint256)"},{"astId":2695,"contract":"contracts/LoanManagerStorage.sol:LoanManagerStorage","label":"escrowedMapleShares","offset":0,"slot":"6","type":"t_mapping(t_address,t_uint256)"},{"astId":2699,"contract":"contracts/LoanManagerStorage.sol:LoanManagerStorage","label":"assetsRedeemed","offset":0,"slot":"7","type":"t_mapping(t_address,t_uint256)"}],"types":{"t_address":{"encoding":"inplace","label":"address","numberOfBytes":"20"},"t_bool":{"encoding":"inplace","label":"bool","numberOfBytes":"1"},"t_mapping(t_address,t_bool)":{"encoding":"mapping","key":"t_address","label":"mapping(address => bool)","numberOfBytes":"32","value":"t_bool"},"t_mapping(t_address,t_uint256)":{"encoding":"mapping","key":"t_address","label":"mapping(address => uint256)","numberOfBytes":"32","value":"t_uint256"},"t_uint256":{"encoding":"inplace","label":"uint256","numberOfBytes":"32"}}}}}}