{"contracts/LoanManagerStorage.sol":{"LoanManagerStorage":{"abi":[{"anonymous":false,"inputs":[{"indexed":true,"internalType":"address","name":"asset","type":"address"},{"indexed":false,"internalType":"uint256","name":"amount","type":"uint256"},{"indexed":false,"internalType":"uint256","name":"lTokens","type":"uint256"},{"indexed":false,"internalType":"uint256","name":"mapleShares","type":"uint256"}],"name":"Deposit","type":"event"},{"anonymous":false,"inputs":[{"indexed":true,"internalType":"address","name":"asset","type":"address"},{"indexed":false,"internalType":"uint256","name":"shares","type":"uint256"},{"indexed":false,"internalType":"uint256","name":"tokensReceived","type":"uint256"}],"name":"Redeem","type":"event"},{"anonymous":false,"inputs":[{"indexed":true,"internalType":"address","name":"asset","type":"address"},{"indexed":false,"internalType":"uint256","name":"lTokens","type":"uint256"},{"indexed":false,"internalType":"uint256","name":"escrowedShares","type":"uint256"}],"name":"RequestRedeem","type":"event"},{"inputs":[],"name":"MAPLE_POOL_MANAGER_USDC","outputs":[{"internalType":"address","name":"","type":"address"}],"stateMutability":"view","type":"function"},{"inputs":[],"name":"MAPLE_POOL_MANAGER_USDT","outputs":[{"internalType":"address","name":"","type":"address"}],"stateMutability":"view","type":"function"},{"inputs":[],"name":"MAPLE_WITHDRAWAL_MANAGER_USDC","outputs":[{"internalType":"address","name":"","type":"address"}],"stateMutability":"view","type":"function"},{"inputs":[],"name":"MAPLE_WITHDRAWAL_MANAGER_USDT","outputs":[{"internalType":"address","name":"","type":"address"}],"stateMutability":"view","type":"function"},{"inputs":[],"name":"adjustedDecimals","outputs":[{"internalType":"uint256","name":"","type":"uint256"}],"stateMutability":"view","type":"function"},{"inputs":[],"name":"admin","outputs":[{"internalType":"address","name":"","type":"address"}],"stateMutability":"view","type":"function"},{"inputs":[{"internalType":"address","name":"","type":"address"}],"name":"assetsRedeemed","outputs":[{"internalType":"uint256","name":"","type":"uint256"}],"stateMutability":"view","type":"function"},{"inputs":[{"internalType":"address","name":"","type":"address"}],"name":"awaitingRedemption","outputs":[{"internalType":"bool","name":"","type":"bool"}],"stateMutability":"view","type":"function"},{"inputs":[{"internalType":"address","name":"","type":"address"}],"name":"escrowedMapleShares","outputs":[{"internalType":"uint256","name":"","type":"uint256"}],"stateMutability":"view","type":"function"},{"inputs":[],"name":"lUSDC","outputs":[{"internalType":"contract LMTokenLP","name":"","type":"address"}],"stateMutability":"view","type":"function"},{"inputs":[],"name":"lUSDT","outputs":[{"internalType":"contract LMTokenLP","name":"","type":"address"}],"stateMutability":"view","type":"function"},{"inputs":[],"name":"mapleUSDCPool","outputs":[{"internalType":"address","name":"","type":"address"}],"stateMutability":"view","type":"function"},{"inputs":[],"name":"mapleUSDTPool","outputs":[{"internalType":"address","name":"","type":"address"}],"stateMutability":"view","type":"function"},{"inputs":[],"name":"nstblHub","outputs":[{"internalType":"address","name":"","type":"address"}],"stateMutability":"view","type":"function"},{"inputs":[{"internalType":"address","name":"","type":"address"}],"name":"totalAssetsReceived","outputs":[{"internalType":"uint256","name":"","type":"uint256"}],"stateMutability":"view","type":"function"},{"inputs":[{"internalType":"address","name":"","type":"address"}],"name":"totalLPTokensBurned","outputs":[{"internalType":"uint256","name":"","type":"uint256"}],"stateMutability":"view","type":"function"},{"inputs":[{"internalType":"address","name":"","type":"address"}],"name":"totalLPTokensMinted","outputs":[{"internalType":"uint256","name":"","type":"uint256"}],"stateMutability":"view","type":"function"},{"inputs":[{"internalType":"address","name":"","type":"address"}],"name":"totalSharesReceived","outputs":[{"internalType":"uint256","name":"","type":"uint256"}],"stateMutability":"view","type":"function"},{"inputs":[],"name":"usdc","outputs":[{"internalType":"address","name":"","type":"address"}],"stateMutability":"view","type":"function"},{"inputs":[],"name":"usdt","outputs":[{"internalType":"address","name":"","type":"address"}],"stateMutability":"view","type":"function"}],"evm":{"bytecode":{"linkReferences":{},"object":"608060405273219654a61a0bc394055652986be403fa14405bb860045f6101000a81548173ffffffffffffffffffffffffffffffffffffffff021916908373ffffffffffffffffffffffffffffffffffffffff16021790555073e76b219f83e887e2503e14c343bb7e0b62a7af5d60055f6101000a81548173ffffffffffffffffffffffffffffffffffffffff021916908373ffffffffffffffffffffffffffffffffffffffff160217905550731146691782c089bcf0b19acb8620943a35eebd1260065f6101000a81548173ffffffffffffffffffffffffffffffffffffffff021916908373ffffffffffffffffffffffffffffffffffffffff16021790555073f0a66f70064ad3198abb35aae26b1eeeaea62c4b60075f6101000a81548173ffffffffffffffffffffffffffffffffffffffff021916908373ffffffffffffffffffffffffffffffffffffffff16021790555034801561015f575f80fd5b5061081e8061016d5f395ff3fe608060405234801561000f575f80fd5b506004361061012a575f3560e01c8063ba3a3550116100ab578063eab2ed001161006f578063eab2ed001461036e578063ed2872211461038c578063f0433052146103aa578063f851a440146103c8578063fe7a2369146103e65761012a565b8063ba3a3550146102b4578063cbaad084146102e4578063cf0d794314610314578063da1d890e14610332578063dbab4c28146103505761012a565b806350f045a6116100f257806350f045a6146101e857806379bcb3b4146102185780638907c5ab14610248578063aba5e33e14610278578063b376cc91146102965761012a565b806313e70b871461012e5780632f48ab7d1461014c57806333a7b07a1461016a5780633e2b583b1461019a5780633e413bee146101ca575b5f80fd5b610136610404565b604051610143919061069e565b60405180910390f35b610154610429565b604051610161919061069e565b60405180910390f35b610184600480360381019061017f91906106e5565b61044e565b6040516101919190610728565b60405180910390f35b6101b460048036038101906101af91906106e5565b610463565b6040516101c19190610728565b60405180910390f35b6101d2610478565b6040516101df919061069e565b60405180910390f35b61020260048036038101906101fd91906106e5565b61049b565b60405161020f9190610728565b60405180910390f35b610232600480360381019061022d91906106e5565b6104b0565b60405161023f9190610728565b60405180910390f35b610262600480360381019061025d91906106e5565b6104c5565b60405161026f919061075b565b60405180910390f35b6102806104e2565b60405161028d919061069e565b60405180910390f35b61029e610507565b6040516102ab919061069e565b60405180910390f35b6102ce60048036038101906102c991906106e5565b61052c565b6040516102db9190610728565b60405180910390f35b6102fe60048036038101906102f991906106e5565b610541565b60405161030b9190610728565b60405180910390f35b61031c610556565b604051610329919061069e565b60405180910390f35b61033a61057b565b60405161034791906107cf565b60405180910390f35b6103586105a0565b60405161036591906107cf565b60405180910390f35b6103766105c5565b6040516103839190610728565b60405180910390f35b6103946105cb565b6040516103a1919061069e565b60405180910390f35b6103b26105f0565b6040516103bf919061069e565b60405180910390f35b6103d0610615565b6040516103dd919061069e565b60405180910390f35b6103ee61063a565b6040516103fb919061069e565b60405180910390f35b60075f9054906101000a900473ffffffffffffffffffffffffffffffffffffffff1681565b60015f9054906101000a900473ffffffffffffffffffffffffffffffffffffffff1681565b600e602052805f5260405f205f915090505481565b6012602052805f5260405f205f915090505481565b5f8054906101000a900473ffffffffffffffffffffffffffffffffffffffff1681565b6013602052805f5260405f205f915090505481565b6010602052805f5260405f205f915090505481565b600d602052805f5260405f205f915054906101000a900460ff1681565b60055f9054906101000a900473ffffffffffffffffffffffffffffffffffffffff1681565b600c5f9054906101000a900473ffffffffffffffffffffffffffffffffffffffff1681565b6011602052805f5260405f205f915090505481565b600f602052805f5260405f205f915090505481565b60065f9054906101000a900473ffffffffffffffffffffffffffffffffffffffff1681565b60095f9054906101000a900473ffffffffffffffffffffffffffffffffffffffff1681565b60085f9054906101000a900473ffffffffffffffffffffffffffffffffffffffff1681565b600a5481565b60025f9054906101000a900473ffffffffffffffffffffffffffffffffffffffff1681565b60035f9054906101000a900473ffffffffffffffffffffffffffffffffffffffff1681565b600b5f9054906101000a900473ffffffffffffffffffffffffffffffffffffffff1681565b60045f9054906101000a900473ffffffffffffffffffffffffffffffffffffffff1681565b5f73ffffffffffffffffffffffffffffffffffffffff82169050919050565b5f6106888261065f565b9050919050565b6106988161067e565b82525050565b5f6020820190506106b15f83018461068f565b92915050565b5f80fd5b6106c48161067e565b81146106ce575f80fd5b50565b5f813590506106df816106bb565b92915050565b5f602082840312156106fa576106f96106b7565b5b5f610707848285016106d1565b91505092915050565b5f819050919050565b61072281610710565b82525050565b5f60208201905061073b5f830184610719565b92915050565b5f8115159050919050565b61075581610741565b82525050565b5f60208201905061076e5f83018461074c565b92915050565b5f819050919050565b5f61079761079261078d8461065f565b610774565b61065f565b9050919050565b5f6107a88261077d565b9050919050565b5f6107b98261079e565b9050919050565b6107c9816107af565b82525050565b5f6020820190506107e25f8301846107c0565b9291505056fea2646970667358221220a222bf1a0d589406071274831a1f3ad96376c8bd034e75c6cd720ee3d65ba85964736f6c63430008150033","opcodes":"PUSH1 0x80 PUSH1 0x40 MSTORE PUSH20 0x219654A61A0BC394055652986BE403FA14405BB8 PUSH1 0x4 PUSH0 PUSH2 0x100 EXP DUP2 SLOAD DUP2 PUSH20 0xFFFFFFFFFFFFFFFFFFFFFFFFFFFFFFFFFFFFFFFF MUL NOT AND SWAP1 DUP4 PUSH20 0xFFFFFFFFFFFFFFFFFFFFFFFFFFFFFFFFFFFFFFFF AND MUL OR SWAP1 SSTORE POP PUSH20 0xE76B219F83E887E2503E14C343BB7E0B62A7AF5D PUSH1 0x5 PUSH0 PUSH2 0x100 EXP DUP2 SLOAD DUP2 PUSH20 0xFFFFFFFFFFFFFFFFFFFFFFFFFFFFFFFFFFFFFFFF MUL NOT AND SWAP1 DUP4 PUSH20 0xFFFFFFFFFFFFFFFFFFFFFFFFFFFFFFFFFFFFFFFF AND MUL OR SWAP1 SSTORE POP PUSH20 0x1146691782C089BCF0B19ACB8620943A35EEBD12 PUSH1 0x6 PUSH0 PUSH2 0x100 EXP DUP2 SLOAD DUP2 PUSH20 0xFFFFFFFFFFFFFFFFFFFFFFFFFFFFFFFFFFFFFFFF MUL NOT AND SWAP1 DUP4 PUSH20 0xFFFFFFFFFFFFFFFFFFFFFFFFFFFFFFFFFFFFFFFF AND MUL OR SWAP1 SSTORE POP PUSH20 0xF0A66F70064AD3198ABB35AAE26B1EEEAEA62C4B PUSH1 0x7 PUSH0 PUSH2 0x100 EXP DUP2 SLOAD DUP2 PUSH20 0xFFFFFFFFFFFFFFFFFFFFFFFFFFFFFFFFFFFFFFFF MUL NOT AND SWAP1 DUP4 PUSH20 0xFFFFFFFFFFFFFFFFFFFFFFFFFFFFFFFFFFFFFFFF AND MUL OR SWAP1 SSTORE POP CALLVALUE DUP1 ISZERO PUSH2 0x15F JUMPI PUSH0 DUP1 REVERT JUMPDEST POP PUSH2 0x81E DUP1 PUSH2 0x16D PUSH0 CODECOPY PUSH0 RETURN INVALID PUSH1 0x80 PUSH1 0x40 MSTORE CALLVALUE DUP1 ISZERO PUSH2 0xF JUMPI PUSH0 DUP1 REVERT JUMPDEST POP PUSH1 0x4 CALLDATASIZE LT PUSH2 0x12A JUMPI PUSH0 CALLDATALOAD PUSH1 0xE0 SHR DUP1 PUSH4 0xBA3A3550 GT PUSH2 0xAB JUMPI DUP1 PUSH4 0xEAB2ED00 GT PUSH2 0x6F JUMPI DUP1 PUSH4 0xEAB2ED00 EQ PUSH2 0x36E JUMPI DUP1 PUSH4 0xED287221 EQ PUSH2 0x38C JUMPI DUP1 PUSH4 0xF0433052 EQ PUSH2 0x3AA JUMPI DUP1 PUSH4 0xF851A440 EQ PUSH2 0x3C8 JUMPI DUP1 PUSH4 0xFE7A2369 EQ PUSH2 0x3E6 JUMPI PUSH2 0x12A JUMP JUMPDEST DUP1 PUSH4 0xBA3A3550 EQ PUSH2 0x2B4 JUMPI DUP1 PUSH4 0xCBAAD084 EQ PUSH2 0x2E4 JUMPI DUP1 PUSH4 0xCF0D7943 EQ PUSH2 0x314 JUMPI DUP1 PUSH4 0xDA1D890E EQ PUSH2 0x332 JUMPI DUP1 PUSH4 0xDBAB4C28 EQ PUSH2 0x350 JUMPI PUSH2 0x12A JUMP JUMPDEST DUP1 PUSH4 0x50F045A6 GT PUSH2 0xF2 JUMPI DUP1 PUSH4 0x50F045A6 EQ PUSH2 0x1E8 JUMPI DUP1 PUSH4 0x79BCB3B4 EQ PUSH2 0x218 JUMPI DUP1 PUSH4 0x8907C5AB EQ PUSH2 0x248 JUMPI DUP1 PUSH4 0xABA5E33E EQ PUSH2 0x278 JUMPI DUP1 PUSH4 0xB376CC91 EQ PUSH2 0x296 JUMPI PUSH2 0x12A JUMP JUMPDEST DUP1 PUSH4 0x13E70B87 EQ PUSH2 0x12E JUMPI DUP1 PUSH4 0x2F48AB7D EQ PUSH2 0x14C JUMPI DUP1 PUSH4 0x33A7B07A EQ PUSH2 0x16A JUMPI DUP1 PUSH4 0x3E2B583B EQ PUSH2 0x19A JUMPI DUP1 PUSH4 0x3E413BEE EQ PUSH2 0x1CA JUMPI JUMPDEST PUSH0 DUP1 REVERT JUMPDEST PUSH2 0x136 PUSH2 0x404 JUMP JUMPDEST PUSH1 0x40 MLOAD PUSH2 0x143 SWAP2 SWAP1 PUSH2 0x69E JUMP JUMPDEST PUSH1 0x40 MLOAD DUP1 SWAP2 SUB SWAP1 RETURN JUMPDEST PUSH2 0x154 PUSH2 0x429 JUMP JUMPDEST PUSH1 0x40 MLOAD PUSH2 0x161 SWAP2 SWAP1 PUSH2 0x69E JUMP JUMPDEST PUSH1 0x40 MLOAD DUP1 SWAP2 SUB SWAP1 RETURN JUMPDEST PUSH2 0x184 PUSH1 0x4 DUP1 CALLDATASIZE SUB DUP2 ADD SWAP1 PUSH2 0x17F SWAP2 SWAP1 PUSH2 0x6E5 JUMP JUMPDEST PUSH2 0x44E JUMP JUMPDEST PUSH1 0x40 MLOAD PUSH2 0x191 SWAP2 SWAP1 PUSH2 0x728 JUMP JUMPDEST PUSH1 0x40 MLOAD DUP1 SWAP2 SUB SWAP1 RETURN JUMPDEST PUSH2 0x1B4 PUSH1 0x4 DUP1 CALLDATASIZE SUB DUP2 ADD SWAP1 PUSH2 0x1AF SWAP2 SWAP1 PUSH2 0x6E5 JUMP JUMPDEST PUSH2 0x463 JUMP JUMPDEST PUSH1 0x40 MLOAD PUSH2 0x1C1 SWAP2 SWAP1 PUSH2 0x728 JUMP JUMPDEST PUSH1 0x40 MLOAD DUP1 SWAP2 SUB SWAP1 RETURN JUMPDEST PUSH2 0x1D2 PUSH2 0x478 JUMP JUMPDEST PUSH1 0x40 MLOAD PUSH2 0x1DF SWAP2 SWAP1 PUSH2 0x69E JUMP JUMPDEST PUSH1 0x40 MLOAD DUP1 SWAP2 SUB SWAP1 RETURN JUMPDEST PUSH2 0x202 PUSH1 0x4 DUP1 CALLDATASIZE SUB DUP2 ADD SWAP1 PUSH2 0x1FD SWAP2 SWAP1 PUSH2 0x6E5 JUMP JUMPDEST PUSH2 0x49B JUMP JUMPDEST PUSH1 0x40 MLOAD PUSH2 0x20F SWAP2 SWAP1 PUSH2 0x728 JUMP JUMPDEST PUSH1 0x40 MLOAD DUP1 SWAP2 SUB SWAP1 RETURN JUMPDEST PUSH2 0x232 PUSH1 0x4 DUP1 CALLDATASIZE SUB DUP2 ADD SWAP1 PUSH2 0x22D SWAP2 SWAP1 PUSH2 0x6E5 JUMP JUMPDEST PUSH2 0x4B0 JUMP JUMPDEST PUSH1 0x40 MLOAD PUSH2 0x23F SWAP2 SWAP1 PUSH2 0x728 JUMP JUMPDEST PUSH1 0x40 MLOAD DUP1 SWAP2 SUB SWAP1 RETURN JUMPDEST PUSH2 0x262 PUSH1 0x4 DUP1 CALLDATASIZE SUB DUP2 ADD SWAP1 PUSH2 0x25D SWAP2 SWAP1 PUSH2 0x6E5 JUMP JUMPDEST PUSH2 0x4C5 JUMP JUMPDEST PUSH1 0x40 MLOAD PUSH2 0x26F SWAP2 SWAP1 PUSH2 0x75B JUMP JUMPDEST PUSH1 0x40 MLOAD DUP1 SWAP2 SUB SWAP1 RETURN JUMPDEST PUSH2 0x280 PUSH2 0x4E2 JUMP JUMPDEST PUSH1 0x40 MLOAD PUSH2 0x28D SWAP2 SWAP1 PUSH2 0x69E JUMP JUMPDEST PUSH1 0x40 MLOAD DUP1 SWAP2 SUB SWAP1 RETURN JUMPDEST PUSH2 0x29E PUSH2 0x507 JUMP JUMPDEST PUSH1 0x40 MLOAD PUSH2 0x2AB SWAP2 SWAP1 PUSH2 0x69E JUMP JUMPDEST PUSH1 0x40 MLOAD DUP1 SWAP2 SUB SWAP1 RETURN JUMPDEST PUSH2 0x2CE PUSH1 0x4 DUP1 CALLDATASIZE SUB DUP2 ADD SWAP1 PUSH2 0x2C9 SWAP2 SWAP1 PUSH2 0x6E5 JUMP JUMPDEST PUSH2 0x52C JUMP JUMPDEST PUSH1 0x40 MLOAD PUSH2 0x2DB SWAP2 SWAP1 PUSH2 0x728 JUMP JUMPDEST PUSH1 0x40 MLOAD DUP1 SWAP2 SUB SWAP1 RETURN JUMPDEST PUSH2 0x2FE PUSH1 0x4 DUP1 CALLDATASIZE SUB DUP2 ADD SWAP1 PUSH2 0x2F9 SWAP2 SWAP1 PUSH2 0x6E5 JUMP JUMPDEST PUSH2 0x541 JUMP JUMPDEST PUSH1 0x40 MLOAD PUSH2 0x30B SWAP2 SWAP1 PUSH2 0x728 JUMP JUMPDEST PUSH1 0x40 MLOAD DUP1 SWAP2 SUB SWAP1 RETURN JUMPDEST PUSH2 0x31C PUSH2 0x556 JUMP JUMPDEST PUSH1 0x40 MLOAD PUSH2 0x329 SWAP2 SWAP1 PUSH2 0x69E JUMP JUMPDEST PUSH1 0x40 MLOAD DUP1 SWAP2 SUB SWAP1 RETURN JUMPDEST PUSH2 0x33A PUSH2 0x57B JUMP JUMPDEST PUSH1 0x40 MLOAD PUSH2 0x347 SWAP2 SWAP1 PUSH2 0x7CF JUMP JUMPDEST PUSH1 0x40 MLOAD DUP1 SWAP2 SUB SWAP1 RETURN JUMPDEST PUSH2 0x358 PUSH2 0x5A0 JUMP JUMPDEST PUSH1 0x40 MLOAD PUSH2 0x365 SWAP2 SWAP1 PUSH2 0x7CF JUMP JUMPDEST PUSH1 0x40 MLOAD DUP1 SWAP2 SUB SWAP1 RETURN JUMPDEST PUSH2 0x376 PUSH2 0x5C5 JUMP JUMPDEST PUSH1 0x40 MLOAD PUSH2 0x383 SWAP2 SWAP1 PUSH2 0x728 JUMP JUMPDEST PUSH1 0x40 MLOAD DUP1 SWAP2 SUB SWAP1 RETURN JUMPDEST PUSH2 0x394 PUSH2 0x5CB JUMP JUMPDEST PUSH1 0x40 MLOAD PUSH2 0x3A1 SWAP2 SWAP1 PUSH2 0x69E JUMP JUMPDEST PUSH1 0x40 MLOAD DUP1 SWAP2 SUB SWAP1 RETURN JUMPDEST PUSH2 0x3B2 PUSH2 0x5F0 JUMP JUMPDEST PUSH1 0x40 MLOAD PUSH2 0x3BF SWAP2 SWAP1 PUSH2 0x69E JUMP JUMPDEST PUSH1 0x40 MLOAD DUP1 SWAP2 SUB SWAP1 RETURN JUMPDEST PUSH2 0x3D0 PUSH2 0x615 JUMP JUMPDEST PUSH1 0x40 MLOAD PUSH2 0x3DD SWAP2 SWAP1 PUSH2 0x69E JUMP JUMPDEST PUSH1 0x40 MLOAD DUP1 SWAP2 SUB SWAP1 RETURN JUMPDEST PUSH2 0x3EE PUSH2 0x63A JUMP JUMPDEST PUSH1 0x40 MLOAD PUSH2 0x3FB SWAP2 SWAP1 PUSH2 0x69E JUMP JUMPDEST PUSH1 0x40 MLOAD DUP1 SWAP2 SUB SWAP1 RETURN JUMPDEST PUSH1 0x7 PUSH0 SWAP1 SLOAD SWAP1 PUSH2 0x100 EXP SWAP1 DIV PUSH20 0xFFFFFFFFFFFFFFFFFFFFFFFFFFFFFFFFFFFFFFFF AND DUP2 JUMP JUMPDEST PUSH1 0x1 PUSH0 SWAP1 SLOAD SWAP1 PUSH2 0x100 EXP SWAP1 DIV PUSH20 0xFFFFFFFFFFFFFFFFFFFFFFFFFFFFFFFFFFFFFFFF AND DUP2 JUMP JUMPDEST PUSH1 0xE PUSH1 0x20 MSTORE DUP1 PUSH0 MSTORE PUSH1 0x40 PUSH0 KECCAK256 PUSH0 SWAP2 POP SWAP1 POP SLOAD DUP2 JUMP JUMPDEST PUSH1 0x12 PUSH1 0x20 MSTORE DUP1 PUSH0 MSTORE PUSH1 0x40 PUSH0 KECCAK256 PUSH0 SWAP2 POP SWAP1 POP SLOAD DUP2 JUMP JUMPDEST PUSH0 DUP1 SLOAD SWAP1 PUSH2 0x100 EXP SWAP1 DIV PUSH20 0xFFFFFFFFFFFFFFFFFFFFFFFFFFFFFFFFFFFFFFFF AND DUP2 JUMP JUMPDEST PUSH1 0x13 PUSH1 0x20 MSTORE DUP1 PUSH0 MSTORE PUSH1 0x40 PUSH0 KECCAK256 PUSH0 SWAP2 POP SWAP1 POP SLOAD DUP2 JUMP JUMPDEST PUSH1 0x10 PUSH1 0x20 MSTORE DUP1 PUSH0 MSTORE PUSH1 0x40 PUSH0 KECCAK256 PUSH0 SWAP2 POP SWAP1 POP SLOAD DUP2 JUMP JUMPDEST PUSH1 0xD PUSH1 0x20 MSTORE DUP1 PUSH0 MSTORE PUSH1 0x40 PUSH0 KECCAK256 PUSH0 SWAP2 POP SLOAD SWAP1 PUSH2 0x100 EXP SWAP1 DIV PUSH1 0xFF AND DUP2 JUMP JUMPDEST PUSH1 0x5 PUSH0 SWAP1 SLOAD SWAP1 PUSH2 0x100 EXP SWAP1 DIV PUSH20 0xFFFFFFFFFFFFFFFFFFFFFFFFFFFFFFFFFFFFFFFF AND DUP2 JUMP JUMPDEST PUSH1 0xC PUSH0 SWAP1 SLOAD SWAP1 PUSH2 0x100 EXP SWAP1 DIV PUSH20 0xFFFFFFFFFFFFFFFFFFFFFFFFFFFFFFFFFFFFFFFF AND DUP2 JUMP JUMPDEST PUSH1 0x11 PUSH1 0x20 MSTORE DUP1 PUSH0 MSTORE PUSH1 0x40 PUSH0 KECCAK256 PUSH0 SWAP2 POP SWAP1 POP SLOAD DUP2 JUMP JUMPDEST PUSH1 0xF PUSH1 0x20 MSTORE DUP1 PUSH0 MSTORE PUSH1 0x40 PUSH0 KECCAK256 PUSH0 SWAP2 POP SWAP1 POP SLOAD DUP2 JUMP JUMPDEST PUSH1 0x6 PUSH0 SWAP1 SLOAD SWAP1 PUSH2 0x100 EXP SWAP1 DIV PUSH20 0xFFFFFFFFFFFFFFFFFFFFFFFFFFFFFFFFFFFFFFFF AND DUP2 JUMP JUMPDEST PUSH1 0x9 PUSH0 SWAP1 SLOAD SWAP1 PUSH2 0x100 EXP SWAP1 DIV PUSH20 0xFFFFFFFFFFFFFFFFFFFFFFFFFFFFFFFFFFFFFFFF AND DUP2 JUMP JUMPDEST PUSH1 0x8 PUSH0 SWAP1 SLOAD SWAP1 PUSH2 0x100 EXP SWAP1 DIV PUSH20 0xFFFFFFFFFFFFFFFFFFFFFFFFFFFFFFFFFFFFFFFF AND DUP2 JUMP JUMPDEST PUSH1 0xA SLOAD DUP2 JUMP JUMPDEST PUSH1 0x2 PUSH0 SWAP1 SLOAD SWAP1 PUSH2 0x100 EXP SWAP1 DIV PUSH20 0xFFFFFFFFFFFFFFFFFFFFFFFFFFFFFFFFFFFFFFFF AND DUP2 JUMP JUMPDEST PUSH1 0x3 PUSH0 SWAP1 SLOAD SWAP1 PUSH2 0x100 EXP SWAP1 DIV PUSH20 0xFFFFFFFFFFFFFFFFFFFFFFFFFFFFFFFFFFFFFFFF AND DUP2 JUMP JUMPDEST PUSH1 0xB PUSH0 SWAP1 SLOAD SWAP1 PUSH2 0x100 EXP SWAP1 DIV PUSH20 0xFFFFFFFFFFFFFFFFFFFFFFFFFFFFFFFFFFFFFFFF AND DUP2 JUMP JUMPDEST PUSH1 0x4 PUSH0 SWAP1 SLOAD SWAP1 PUSH2 0x100 EXP SWAP1 DIV PUSH20 0xFFFFFFFFFFFFFFFFFFFFFFFFFFFFFFFFFFFFFFFF AND DUP2 JUMP JUMPDEST PUSH0 PUSH20 0xFFFFFFFFFFFFFFFFFFFFFFFFFFFFFFFFFFFFFFFF DUP3 AND SWAP1 POP SWAP2 SWAP1 POP JUMP JUMPDEST PUSH0 PUSH2 0x688 DUP3 PUSH2 0x65F JUMP JUMPDEST SWAP1 POP SWAP2 SWAP1 POP JUMP JUMPDEST PUSH2 0x698 DUP2 PUSH2 0x67E JUMP JUMPDEST DUP3 MSTORE POP POP JUMP JUMPDEST PUSH0 PUSH1 0x20 DUP3 ADD SWAP1 POP PUSH2 0x6B1 PUSH0 DUP4 ADD DUP5 PUSH2 0x68F JUMP JUMPDEST SWAP3 SWAP2 POP POP JUMP JUMPDEST PUSH0 DUP1 REVERT JUMPDEST PUSH2 0x6C4 DUP2 PUSH2 0x67E JUMP JUMPDEST DUP2 EQ PUSH2 0x6CE JUMPI PUSH0 DUP1 REVERT JUMPDEST POP JUMP JUMPDEST PUSH0 DUP2 CALLDATALOAD SWAP1 POP PUSH2 0x6DF DUP2 PUSH2 0x6BB JUMP JUMPDEST SWAP3 SWAP2 POP POP JUMP JUMPDEST PUSH0 PUSH1 0x20 DUP3 DUP5 SUB SLT ISZERO PUSH2 0x6FA JUMPI PUSH2 0x6F9 PUSH2 0x6B7 JUMP JUMPDEST JUMPDEST PUSH0 PUSH2 0x707 DUP5 DUP3 DUP6 ADD PUSH2 0x6D1 JUMP JUMPDEST SWAP2 POP POP SWAP3 SWAP2 POP POP JUMP JUMPDEST PUSH0 DUP2 SWAP1 POP SWAP2 SWAP1 POP JUMP JUMPDEST PUSH2 0x722 DUP2 PUSH2 0x710 JUMP JUMPDEST DUP3 MSTORE POP POP JUMP JUMPDEST PUSH0 PUSH1 0x20 DUP3 ADD SWAP1 POP PUSH2 0x73B PUSH0 DUP4 ADD DUP5 PUSH2 0x719 JUMP JUMPDEST SWAP3 SWAP2 POP POP JUMP JUMPDEST PUSH0 DUP2 ISZERO ISZERO SWAP1 POP SWAP2 SWAP1 POP JUMP JUMPDEST PUSH2 0x755 DUP2 PUSH2 0x741 JUMP JUMPDEST DUP3 MSTORE POP POP JUMP JUMPDEST PUSH0 PUSH1 0x20 DUP3 ADD SWAP1 POP PUSH2 0x76E PUSH0 DUP4 ADD DUP5 PUSH2 0x74C JUMP JUMPDEST SWAP3 SWAP2 POP POP JUMP JUMPDEST PUSH0 DUP2 SWAP1 POP SWAP2 SWAP1 POP JUMP JUMPDEST PUSH0 PUSH2 0x797 PUSH2 0x792 PUSH2 0x78D DUP5 PUSH2 0x65F JUMP JUMPDEST PUSH2 0x774 JUMP JUMPDEST PUSH2 0x65F JUMP JUMPDEST SWAP1 POP SWAP2 SWAP1 POP JUMP JUMPDEST PUSH0 PUSH2 0x7A8 DUP3 PUSH2 0x77D JUMP JUMPDEST SWAP1 POP SWAP2 SWAP1 POP JUMP JUMPDEST PUSH0 PUSH2 0x7B9 DUP3 PUSH2 0x79E JUMP JUMPDEST SWAP1 POP SWAP2 SWAP1 POP JUMP JUMPDEST PUSH2 0x7C9 DUP2 PUSH2 0x7AF JUMP JUMPDEST DUP3 MSTORE POP POP JUMP JUMPDEST PUSH0 PUSH1 0x20 DUP3 ADD SWAP1 POP PUSH2 0x7E2 PUSH0 DUP4 ADD DUP5 PUSH2 0x7C0 JUMP JUMPDEST SWAP3 SWAP2 POP POP JUMP INVALID LOG2 PUSH5 0x6970667358 0x22 SLT KECCAK256 LOG2 0x22 0xBF BYTE 0xD PC SWAP5 MOD SMOD SLT PUSH21 0x831A1F3AD96376C8BD034E75C6CD720EE3D65BA859 PUSH5 0x736F6C6343 STOP ADDMOD ISZERO STOP CALLER "},"methodIdentifiers":{"MAPLE_POOL_MANAGER_USDC()":"fe7a2369","MAPLE_POOL_MANAGER_USDT()":"aba5e33e","MAPLE_WITHDRAWAL_MANAGER_USDC()":"cf0d7943","MAPLE_WITHDRAWAL_MANAGER_USDT()":"13e70b87","adjustedDecimals()":"eab2ed00","admin()":"f851a440","assetsRedeemed(address)":"50f045a6","awaitingRedemption(address)":"8907c5ab","escrowedMapleShares(address)":"3e2b583b","lUSDC()":"dbab4c28","lUSDT()":"da1d890e","mapleUSDCPool()":"ed287221","mapleUSDTPool()":"f0433052","nstblHub()":"b376cc91","totalAssetsReceived(address)":"33a7b07a","totalLPTokensBurned(address)":"ba3a3550","totalLPTokensMinted(address)":"79bcb3b4","totalSharesReceived(address)":"cbaad084","usdc()":"3e413bee","usdt()":"2f48ab7d"}},"storageLayout":{"storage":[{"astId":3734,"contract":"contracts/LoanManagerStorage.sol:LoanManagerStorage","label":"usdc","offset":0,"slot":"0","type":"t_address"},{"astId":3736,"contract":"contracts/LoanManagerStorage.sol:LoanManagerStorage","label":"usdt","offset":0,"slot":"1","type":"t_address"},{"astId":3739,"contract":"contracts/LoanManagerStorage.sol:LoanManagerStorage","label":"mapleUSDCPool","offset":0,"slot":"2","type":"t_address"},{"astId":3741,"contract":"contracts/LoanManagerStorage.sol:LoanManagerStorage","label":"mapleUSDTPool","offset":0,"slot":"3","type":"t_address"},{"astId":3745,"contract":"contracts/LoanManagerStorage.sol:LoanManagerStorage","label":"MAPLE_POOL_MANAGER_USDC","offset":0,"slot":"4","type":"t_address"},{"astId":3748,"contract":"contracts/LoanManagerStorage.sol:LoanManagerStorage","label":"MAPLE_POOL_MANAGER_USDT","offset":0,"slot":"5","type":"t_address"},{"astId":3752,"contract":"contracts/LoanManagerStorage.sol:LoanManagerStorage","label":"MAPLE_WITHDRAWAL_MANAGER_USDC","offset":0,"slot":"6","type":"t_address"},{"astId":3755,"contract":"contracts/LoanManagerStorage.sol:LoanManagerStorage","label":"MAPLE_WITHDRAWAL_MANAGER_USDT","offset":0,"slot":"7","type":"t_address"},{"astId":3759,"contract":"contracts/LoanManagerStorage.sol:LoanManagerStorage","label":"lUSDC","offset":0,"slot":"8","type":"t_contract(LMTokenLP)2674"},{"astId":3762,"contract":"contracts/LoanManagerStorage.sol:LoanManagerStorage","label":"lUSDT","offset":0,"slot":"9","type":"t_contract(LMTokenLP)2674"},{"astId":3765,"contract":"contracts/LoanManagerStorage.sol:LoanManagerStorage","label":"adjustedDecimals","offset":0,"slot":"10","type":"t_uint256"},{"astId":3768,"contract":"contracts/LoanManagerStorage.sol:LoanManagerStorage","label":"admin","offset":0,"slot":"11","type":"t_address"},{"astId":3771,"contract":"contracts/LoanManagerStorage.sol:LoanManagerStorage","label":"nstblHub","offset":0,"slot":"12","type":"t_address"},{"astId":3775,"contract":"contracts/LoanManagerStorage.sol:LoanManagerStorage","label":"awaitingRedemption","offset":0,"slot":"13","type":"t_mapping(t_address,t_bool)"},{"astId":3779,"contract":"contracts/LoanManagerStorage.sol:LoanManagerStorage","label":"totalAssetsReceived","offset":0,"slot":"14","type":"t_mapping(t_address,t_uint256)"},{"astId":3783,"contract":"contracts/LoanManagerStorage.sol:LoanManagerStorage","label":"totalSharesReceived","offset":0,"slot":"15","type":"t_mapping(t_address,t_uint256)"},{"astId":3787,"contract":"contracts/LoanManagerStorage.sol:LoanManagerStorage","label":"totalLPTokensMinted","offset":0,"slot":"16","type":"t_mapping(t_address,t_uint256)"},{"astId":3791,"contract":"contracts/LoanManagerStorage.sol:LoanManagerStorage","label":"totalLPTokensBurned","offset":0,"slot":"17","type":"t_mapping(t_address,t_uint256)"},{"astId":3795,"contract":"contracts/LoanManagerStorage.sol:LoanManagerStorage","label":"escrowedMapleShares","offset":0,"slot":"18","type":"t_mapping(t_address,t_uint256)"},{"astId":3799,"contract":"contracts/LoanManagerStorage.sol:LoanManagerStorage","label":"assetsRedeemed","offset":0,"slot":"19","type":"t_mapping(t_address,t_uint256)"}],"types":{"t_address":{"encoding":"inplace","label":"address","numberOfBytes":"20"},"t_bool":{"encoding":"inplace","label":"bool","numberOfBytes":"1"},"t_contract(LMTokenLP)2674":{"encoding":"inplace","label":"contract LMTokenLP","numberOfBytes":"20"},"t_mapping(t_address,t_bool)":{"encoding":"mapping","key":"t_address","label":"mapping(address => bool)","numberOfBytes":"32","value":"t_bool"},"t_mapping(t_address,t_uint256)":{"encoding":"mapping","key":"t_address","label":"mapping(address => uint256)","numberOfBytes":"32","value":"t_uint256"},"t_uint256":{"encoding":"inplace","label":"uint256","numberOfBytes":"32"}}}}}}