{
  "_format": "hh-sol-artifact-1",
  "contractName": "LMTokenLP",
  "sourceName": "contracts/LMTokenLP.sol",
  "abi": [
    {
      "inputs": [
        {
          "internalType": "string",
          "name": "_name",
          "type": "string"
        },
        {
          "internalType": "string",
          "name": "_symbol",
          "type": "string"
        },
        {
          "internalType": "address",
          "name": "_admin",
          "type": "address"
        }
      ],
      "stateMutability": "nonpayable",
      "type": "constructor"
    },
    {
      "anonymous": false,
      "inputs": [
        {
          "indexed": true,
          "internalType": "address",
          "name": "owner",
          "type": "address"
        },
        {
          "indexed": true,
          "internalType": "address",
          "name": "spender",
          "type": "address"
        },
        {
          "indexed": false,
          "internalType": "uint256",
          "name": "value",
          "type": "uint256"
        }
      ],
      "name": "Approval",
      "type": "event"
    },
    {
      "anonymous": false,
      "inputs": [
        {
          "indexed": true,
          "internalType": "address",
          "name": "from",
          "type": "address"
        },
        {
          "indexed": true,
          "internalType": "address",
          "name": "to",
          "type": "address"
        },
        {
          "indexed": false,
          "internalType": "uint256",
          "name": "value",
          "type": "uint256"
        }
      ],
      "name": "Transfer",
      "type": "event"
    },
    {
      "inputs": [],
      "name": "admin",
      "outputs": [
        {
          "internalType": "address",
          "name": "",
          "type": "address"
        }
      ],
      "stateMutability": "view",
      "type": "function"
    },
    {
      "inputs": [
        {
          "internalType": "address",
          "name": "owner",
          "type": "address"
        },
        {
          "internalType": "address",
          "name": "spender",
          "type": "address"
        }
      ],
      "name": "allowance",
      "outputs": [
        {
          "internalType": "uint256",
          "name": "",
          "type": "uint256"
        }
      ],
      "stateMutability": "view",
      "type": "function"
    },
    {
      "inputs": [
        {
          "internalType": "address",
          "name": "spender",
          "type": "address"
        },
        {
          "internalType": "uint256",
          "name": "amount",
          "type": "uint256"
        }
      ],
      "name": "approve",
      "outputs": [
        {
          "internalType": "bool",
          "name": "",
          "type": "bool"
        }
      ],
      "stateMutability": "nonpayable",
      "type": "function"
    },
    {
      "inputs": [
        {
          "internalType": "address",
          "name": "account",
          "type": "address"
        }
      ],
      "name": "balanceOf",
      "outputs": [
        {
          "internalType": "uint256",
          "name": "",
          "type": "uint256"
        }
      ],
      "stateMutability": "view",
      "type": "function"
    },
    {
      "inputs": [
        {
          "internalType": "address",
          "name": "_user",
          "type": "address"
        },
        {
          "internalType": "uint256",
          "name": "_amount",
          "type": "uint256"
        }
      ],
      "name": "burn",
      "outputs": [],
      "stateMutability": "nonpayable",
      "type": "function"
    },
    {
      "inputs": [],
      "name": "decimals",
      "outputs": [
        {
          "internalType": "uint8",
          "name": "",
          "type": "uint8"
        }
      ],
      "stateMutability": "view",
      "type": "function"
    },
    {
      "inputs": [
        {
          "internalType": "address",
          "name": "spender",
          "type": "address"
        },
        {
          "internalType": "uint256",
          "name": "subtractedValue",
          "type": "uint256"
        }
      ],
      "name": "decreaseAllowance",
      "outputs": [
        {
          "internalType": "bool",
          "name": "",
          "type": "bool"
        }
      ],
      "stateMutability": "nonpayable",
      "type": "function"
    },
    {
      "inputs": [
        {
          "internalType": "address",
          "name": "spender",
          "type": "address"
        },
        {
          "internalType": "uint256",
          "name": "addedValue",
          "type": "uint256"
        }
      ],
      "name": "increaseAllowance",
      "outputs": [
        {
          "internalType": "bool",
          "name": "",
          "type": "bool"
        }
      ],
      "stateMutability": "nonpayable",
      "type": "function"
    },
    {
      "inputs": [],
      "name": "loanManager",
      "outputs": [
        {
          "internalType": "address",
          "name": "",
          "type": "address"
        }
      ],
      "stateMutability": "view",
      "type": "function"
    },
    {
      "inputs": [
        {
          "internalType": "address",
          "name": "_user",
          "type": "address"
        },
        {
          "internalType": "uint256",
          "name": "_amount",
          "type": "uint256"
        }
      ],
      "name": "mint",
      "outputs": [],
      "stateMutability": "nonpayable",
      "type": "function"
    },
    {
      "inputs": [],
      "name": "name",
      "outputs": [
        {
          "internalType": "string",
          "name": "",
          "type": "string"
        }
      ],
      "stateMutability": "view",
      "type": "function"
    },
    {
      "inputs": [
        {
          "internalType": "address",
          "name": "_admin",
          "type": "address"
        }
      ],
      "name": "setAdmin",
      "outputs": [],
      "stateMutability": "nonpayable",
      "type": "function"
    },
    {
      "inputs": [
        {
          "internalType": "address",
          "name": "_loanManager",
          "type": "address"
        }
      ],
      "name": "setLoanManager",
      "outputs": [],
      "stateMutability": "nonpayable",
      "type": "function"
    },
    {
      "inputs": [],
      "name": "symbol",
      "outputs": [
        {
          "internalType": "string",
          "name": "",
          "type": "string"
        }
      ],
      "stateMutability": "view",
      "type": "function"
    },
    {
      "inputs": [],
      "name": "totalSupply",
      "outputs": [
        {
          "internalType": "uint256",
          "name": "",
          "type": "uint256"
        }
      ],
      "stateMutability": "view",
      "type": "function"
    },
    {
      "inputs": [
        {
          "internalType": "address",
          "name": "to",
          "type": "address"
        },
        {
          "internalType": "uint256",
          "name": "amount",
          "type": "uint256"
        }
      ],
      "name": "transfer",
      "outputs": [
        {
          "internalType": "bool",
          "name": "",
          "type": "bool"
        }
      ],
      "stateMutability": "nonpayable",
      "type": "function"
    },
    {
      "inputs": [
        {
          "internalType": "address",
          "name": "from",
          "type": "address"
        },
        {
          "internalType": "address",
          "name": "to",
          "type": "address"
        },
        {
          "internalType": "uint256",
          "name": "amount",
          "type": "uint256"
        }
      ],
      "name": "transferFrom",
      "outputs": [
        {
          "internalType": "bool",
          "name": "",
          "type": "bool"
        }
      ],
      "stateMutability": "nonpayable",
      "type": "function"
    }
  ],
  "bytecode": "0x608060405234801562000010575f80fd5b5060405162002213380380620022138339818101604052810190620000369190620002cd565b828281600390816200004991906200059b565b5080600490816200005b91906200059b565b5050508060065f6101000a81548173ffffffffffffffffffffffffffffffffffffffff021916908373ffffffffffffffffffffffffffffffffffffffff1602179055503360055f6101000a81548173ffffffffffffffffffffffffffffffffffffffff021916908373ffffffffffffffffffffffffffffffffffffffff1602179055505050506200067f565b5f604051905090565b5f80fd5b5f80fd5b5f80fd5b5f80fd5b5f601f19601f8301169050919050565b7f4e487b71000000000000000000000000000000000000000000000000000000005f52604160045260245ffd5b620001488262000100565b810181811067ffffffffffffffff821117156200016a576200016962000110565b5b80604052505050565b5f6200017e620000e7565b90506200018c82826200013d565b919050565b5f67ffffffffffffffff821115620001ae57620001ad62000110565b5b620001b98262000100565b9050602081019050919050565b5f5b83811015620001e5578082015181840152602081019050620001c8565b5f8484015250505050565b5f62000206620002008462000191565b62000173565b905082815260208101848484011115620002255762000224620000fc565b5b62000232848285620001c6565b509392505050565b5f82601f830112620002515762000250620000f8565b5b815162000263848260208601620001f0565b91505092915050565b5f73ffffffffffffffffffffffffffffffffffffffff82169050919050565b5f62000297826200026c565b9050919050565b620002a9816200028b565b8114620002b4575f80fd5b50565b5f81519050620002c7816200029e565b92915050565b5f805f60608486031215620002e757620002e6620000f0565b5b5f84015167ffffffffffffffff811115620003075762000306620000f4565b5b62000315868287016200023a565b935050602084015167ffffffffffffffff811115620003395762000338620000f4565b5b62000347868287016200023a565b92505060406200035a86828701620002b7565b9150509250925092565b5f81519050919050565b7f4e487b71000000000000000000000000000000000000000000000000000000005f52602260045260245ffd5b5f6002820490506001821680620003b357607f821691505b602082108103620003c957620003c86200036e565b5b50919050565b5f819050815f5260205f209050919050565b5f6020601f8301049050919050565b5f82821b905092915050565b5f600883026200042d7fffffffffffffffffffffffffffffffffffffffffffffffffffffffffffffffff82620003f0565b620004398683620003f0565b95508019841693508086168417925050509392505050565b5f819050919050565b5f819050919050565b5f620004836200047d620004778462000451565b6200045a565b62000451565b9050919050565b5f819050919050565b6200049e8362000463565b620004b6620004ad826200048a565b848454620003fc565b825550505050565b5f90565b620004cc620004be565b620004d981848462000493565b505050565b5b818110156200050057620004f45f82620004c2565b600181019050620004df565b5050565b601f8211156200054f576200051981620003cf565b6200052484620003e1565b8101602085101562000534578190505b6200054c6200054385620003e1565b830182620004de565b50505b505050565b5f82821c905092915050565b5f620005715f198460080262000554565b1980831691505092915050565b5f6200058b838362000560565b9150826002028217905092915050565b620005a68262000364565b67ffffffffffffffff811115620005c257620005c162000110565b5b620005ce82546200039b565b620005db82828562000504565b5f60209050601f83116001811462000611575f8415620005fc578287015190505b6200060885826200057e565b86555062000677565b601f1984166200062186620003cf565b5f5b828110156200064a5784890151825560018201915060208501945060208101905062000623565b868310156200066a578489015162000666601f89168262000560565b8355505b6001600288020188555050505b505050505050565b611b86806200068d5f395ff3fe608060405234801561000f575f80fd5b5060043610610109575f3560e01c8063704b6c02116100a0578063a457c2d71161006f578063a457c2d7146102b5578063a9059cbb146102e5578063b3ccbcfe14610315578063dd62ed3e14610333578063f851a4401461036357610109565b8063704b6c021461022f57806370a082311461024b57806395d89b411461027b5780639dc29fac1461029957610109565b8063313ce567116100dc578063313ce567146101a957806339509351146101c757806340c10f19146101f75780635772ae701461021357610109565b806306fdde031461010d578063095ea7b31461012b57806318160ddd1461015b57806323b872dd14610179575b5f80fd5b610115610381565b6040516101229190611224565b60405180910390f35b610145600480360381019061014091906112d5565b610411565b604051610152919061132d565b60405180910390f35b610163610433565b6040516101709190611355565b60405180910390f35b610193600480360381019061018e919061136e565b61043c565b6040516101a0919061132d565b60405180910390f35b6101b161046a565b6040516101be91906113d9565b60405180910390f35b6101e160048036038101906101dc91906112d5565b610472565b6040516101ee919061132d565b60405180910390f35b610211600480360381019061020c91906112d5565b6104a8565b005b61022d600480360381019061022891906113f2565b610545565b005b610249600480360381019061024491906113f2565b610617565b005b610265600480360381019061026091906113f2565b6106e9565b6040516102729190611355565b60405180910390f35b61028361072e565b6040516102909190611224565b60405180910390f35b6102b360048036038101906102ae91906112d5565b6107be565b005b6102cf60048036038101906102ca91906112d5565b61085b565b6040516102dc919061132d565b60405180910390f35b6102ff60048036038101906102fa91906112d5565b6108d0565b60405161030c919061132d565b60405180910390f35b61031d6108f2565b60405161032a919061142c565b60405180910390f35b61034d60048036038101906103489190611445565b610917565b60405161035a9190611355565b60405180910390f35b61036b610999565b604051610378919061142c565b60405180910390f35b606060038054610390906114b0565b80601f01602080910402602001604051908101604052809291908181526020018280546103bc906114b0565b80156104075780601f106103de57610100808354040283529160200191610407565b820191905f5260205f20905b8154815290600101906020018083116103ea57829003601f168201915b5050505050905090565b5f8061041b6109be565b90506104288185856109c5565b600191505092915050565b5f600254905090565b5f806104466109be565b9050610453858285610b88565b61045e858585610c13565b60019150509392505050565b5f6012905090565b5f8061047c6109be565b905061049d81858561048e8589610917565b610498919061150d565b6109c5565b600191505092915050565b60055f9054906101000a900473ffffffffffffffffffffffffffffffffffffffff1673ffffffffffffffffffffffffffffffffffffffff163373ffffffffffffffffffffffffffffffffffffffff1614610537576040517f08c379a000000000000000000000000000000000000000000000000000000000815260040161052e9061158a565b60405180910390fd5b6105418282610e7f565b5050565b60065f9054906101000a900473ffffffffffffffffffffffffffffffffffffffff1673ffffffffffffffffffffffffffffffffffffffff163373ffffffffffffffffffffffffffffffffffffffff16146105d4576040517f08c379a00000000000000000000000000000000000000000000000000000000081526004016105cb906115f2565b60405180910390fd5b8060055f6101000a81548173ffffffffffffffffffffffffffffffffffffffff021916908373ffffffffffffffffffffffffffffffffffffffff16021790555050565b60065f9054906101000a900473ffffffffffffffffffffffffffffffffffffffff1673ffffffffffffffffffffffffffffffffffffffff163373ffffffffffffffffffffffffffffffffffffffff16146106a6576040517f08c379a000000000000000000000000000000000000000000000000000000000815260040161069d906115f2565b60405180910390fd5b8060065f6101000a81548173ffffffffffffffffffffffffffffffffffffffff021916908373ffffffffffffffffffffffffffffffffffffffff16021790555050565b5f805f8373ffffffffffffffffffffffffffffffffffffffff1673ffffffffffffffffffffffffffffffffffffffff1681526020019081526020015f20549050919050565b60606004805461073d906114b0565b80601f0160208091040260200160405190810160405280929190818152602001828054610769906114b0565b80156107b45780601f1061078b576101008083540402835291602001916107b4565b820191905f5260205f20905b81548152906001019060200180831161079757829003601f168201915b5050505050905090565b60055f9054906101000a900473ffffffffffffffffffffffffffffffffffffffff1673ffffffffffffffffffffffffffffffffffffffff163373ffffffffffffffffffffffffffffffffffffffff161461084d576040517f08c379a00000000000000000000000000000000000000000000000000000000081526004016108449061158a565b60405180910390fd5b6108578282610fcd565b5050565b5f806108656109be565b90505f6108728286610917565b9050838110156108b7576040517f08c379a00000000000000000000000000000000000000000000000000000000081526004016108ae90611680565b60405180910390fd5b6108c482868684036109c5565b60019250505092915050565b5f806108da6109be565b90506108e7818585610c13565b600191505092915050565b60055f9054906101000a900473ffffffffffffffffffffffffffffffffffffffff1681565b5f60015f8473ffffffffffffffffffffffffffffffffffffffff1673ffffffffffffffffffffffffffffffffffffffff1681526020019081526020015f205f8373ffffffffffffffffffffffffffffffffffffffff1673ffffffffffffffffffffffffffffffffffffffff1681526020019081526020015f2054905092915050565b60065f9054906101000a900473ffffffffffffffffffffffffffffffffffffffff1681565b5f33905090565b5f73ffffffffffffffffffffffffffffffffffffffff168373ffffffffffffffffffffffffffffffffffffffff1603610a33576040517f08c379a0000000000000000000000000000000000000000000000000000000008152600401610a2a9061170e565b60405180910390fd5b5f73ffffffffffffffffffffffffffffffffffffffff168273ffffffffffffffffffffffffffffffffffffffff1603610aa1576040517f08c379a0000000000000000000000000000000000000000000000000000000008152600401610a989061179c565b60405180910390fd5b8060015f8573ffffffffffffffffffffffffffffffffffffffff1673ffffffffffffffffffffffffffffffffffffffff1681526020019081526020015f205f8473ffffffffffffffffffffffffffffffffffffffff1673ffffffffffffffffffffffffffffffffffffffff1681526020019081526020015f20819055508173ffffffffffffffffffffffffffffffffffffffff168373ffffffffffffffffffffffffffffffffffffffff167f8c5be1e5ebec7d5bd14f71427d1e84f3dd0314c0f7b2291e5b200ac8c7c3b92583604051610b7b9190611355565b60405180910390a3505050565b5f610b938484610917565b90507fffffffffffffffffffffffffffffffffffffffffffffffffffffffffffffffff8114610c0d5781811015610bff576040517f08c379a0000000000000000000000000000000000000000000000000000000008152600401610bf690611804565b60405180910390fd5b610c0c84848484036109c5565b5b50505050565b5f73ffffffffffffffffffffffffffffffffffffffff168373ffffffffffffffffffffffffffffffffffffffff1603610c81576040517f08c379a0000000000000000000000000000000000000000000000000000000008152600401610c7890611892565b60405180910390fd5b5f73ffffffffffffffffffffffffffffffffffffffff168273ffffffffffffffffffffffffffffffffffffffff1603610cef576040517f08c379a0000000000000000000000000000000000000000000000000000000008152600401610ce690611920565b60405180910390fd5b610cfa838383611190565b5f805f8573ffffffffffffffffffffffffffffffffffffffff1673ffffffffffffffffffffffffffffffffffffffff1681526020019081526020015f2054905081811015610d7d576040517f08c379a0000000000000000000000000000000000000000000000000000000008152600401610d74906119ae565b60405180910390fd5b8181035f808673ffffffffffffffffffffffffffffffffffffffff1673ffffffffffffffffffffffffffffffffffffffff1681526020019081526020015f2081905550815f808573ffffffffffffffffffffffffffffffffffffffff1673ffffffffffffffffffffffffffffffffffffffff1681526020019081526020015f205f82825401925050819055508273ffffffffffffffffffffffffffffffffffffffff168473ffffffffffffffffffffffffffffffffffffffff167fddf252ad1be2c89b69c2b068fc378daa952ba7f163c4a11628f55a4df523b3ef84604051610e669190611355565b60405180910390a3610e79848484611195565b50505050565b5f73ffffffffffffffffffffffffffffffffffffffff168273ffffffffffffffffffffffffffffffffffffffff1603610eed576040517f08c379a0000000000000000000000000000000000000000000000000000000008152600401610ee490611a16565b60405180910390fd5b610ef85f8383611190565b8060025f828254610f09919061150d565b92505081905550805f808473ffffffffffffffffffffffffffffffffffffffff1673ffffffffffffffffffffffffffffffffffffffff1681526020019081526020015f205f82825401925050819055508173ffffffffffffffffffffffffffffffffffffffff165f73ffffffffffffffffffffffffffffffffffffffff167fddf252ad1be2c89b69c2b068fc378daa952ba7f163c4a11628f55a4df523b3ef83604051610fb69190611355565b60405180910390a3610fc95f8383611195565b5050565b5f73ffffffffffffffffffffffffffffffffffffffff168273ffffffffffffffffffffffffffffffffffffffff160361103b576040517f08c379a000000000000000000000000000000000000000000000000000000000815260040161103290611aa4565b60405180910390fd5b611046825f83611190565b5f805f8473ffffffffffffffffffffffffffffffffffffffff1673ffffffffffffffffffffffffffffffffffffffff1681526020019081526020015f20549050818110156110c9576040517f08c379a00000000000000000000000000000000000000000000000000000000081526004016110c090611b32565b60405180910390fd5b8181035f808573ffffffffffffffffffffffffffffffffffffffff1673ffffffffffffffffffffffffffffffffffffffff1681526020019081526020015f20819055508160025f82825403925050819055505f73ffffffffffffffffffffffffffffffffffffffff168373ffffffffffffffffffffffffffffffffffffffff167fddf252ad1be2c89b69c2b068fc378daa952ba7f163c4a11628f55a4df523b3ef846040516111789190611355565b60405180910390a361118b835f84611195565b505050565b505050565b505050565b5f81519050919050565b5f82825260208201905092915050565b5f5b838110156111d15780820151818401526020810190506111b6565b5f8484015250505050565b5f601f19601f8301169050919050565b5f6111f68261119a565b61120081856111a4565b93506112108185602086016111b4565b611219816111dc565b840191505092915050565b5f6020820190508181035f83015261123c81846111ec565b905092915050565b5f80fd5b5f73ffffffffffffffffffffffffffffffffffffffff82169050919050565b5f61127182611248565b9050919050565b61128181611267565b811461128b575f80fd5b50565b5f8135905061129c81611278565b92915050565b5f819050919050565b6112b4816112a2565b81146112be575f80fd5b50565b5f813590506112cf816112ab565b92915050565b5f80604083850312156112eb576112ea611244565b5b5f6112f88582860161128e565b9250506020611309858286016112c1565b9150509250929050565b5f8115159050919050565b61132781611313565b82525050565b5f6020820190506113405f83018461131e565b92915050565b61134f816112a2565b82525050565b5f6020820190506113685f830184611346565b92915050565b5f805f6060848603121561138557611384611244565b5b5f6113928682870161128e565b93505060206113a38682870161128e565b92505060406113b4868287016112c1565b9150509250925092565b5f60ff82169050919050565b6113d3816113be565b82525050565b5f6020820190506113ec5f8301846113ca565b92915050565b5f6020828403121561140757611406611244565b5b5f6114148482850161128e565b91505092915050565b61142681611267565b82525050565b5f60208201905061143f5f83018461141d565b92915050565b5f806040838503121561145b5761145a611244565b5b5f6114688582860161128e565b92505060206114798582860161128e565b9150509250929050565b7f4e487b71000000000000000000000000000000000000000000000000000000005f52602260045260245ffd5b5f60028204905060018216806114c757607f821691505b6020821081036114da576114d9611483565b5b50919050565b7f4e487b71000000000000000000000000000000000000000000000000000000005f52601160045260245ffd5b5f611517826112a2565b9150611522836112a2565b925082820190508082111561153a576115396114e0565b5b92915050565b7f546f6b656e3a204c6f616e4d616e6167657220756e41757468000000000000005f82015250565b5f6115746019836111a4565b915061157f82611540565b602082019050919050565b5f6020820190508181035f8301526115a181611568565b9050919050565b7f546f6b656e3a2041646d696e20756e41757468000000000000000000000000005f82015250565b5f6115dc6013836111a4565b91506115e7826115a8565b602082019050919050565b5f6020820190508181035f830152611609816115d0565b9050919050565b7f45524332303a2064656372656173656420616c6c6f77616e63652062656c6f775f8201527f207a65726f000000000000000000000000000000000000000000000000000000602082015250565b5f61166a6025836111a4565b915061167582611610565b604082019050919050565b5f6020820190508181035f8301526116978161165e565b9050919050565b7f45524332303a20617070726f76652066726f6d20746865207a65726f206164645f8201527f7265737300000000000000000000000000000000000000000000000000000000602082015250565b5f6116f86024836111a4565b91506117038261169e565b604082019050919050565b5f6020820190508181035f830152611725816116ec565b9050919050565b7f45524332303a20617070726f766520746f20746865207a65726f2061646472655f8201527f7373000000000000000000000000000000000000000000000000000000000000602082015250565b5f6117866022836111a4565b91506117918261172c565b604082019050919050565b5f6020820190508181035f8301526117b38161177a565b9050919050565b7f45524332303a20696e73756666696369656e7420616c6c6f77616e63650000005f82015250565b5f6117ee601d836111a4565b91506117f9826117ba565b602082019050919050565b5f6020820190508181035f83015261181b816117e2565b9050919050565b7f45524332303a207472616e736665722066726f6d20746865207a65726f2061645f8201527f6472657373000000000000000000000000000000000000000000000000000000602082015250565b5f61187c6025836111a4565b915061188782611822565b604082019050919050565b5f6020820190508181035f8301526118a981611870565b9050919050565b7f45524332303a207472616e7366657220746f20746865207a65726f20616464725f8201527f6573730000000000000000000000000000000000000000000000000000000000602082015250565b5f61190a6023836111a4565b9150611915826118b0565b604082019050919050565b5f6020820190508181035f830152611937816118fe565b9050919050565b7f45524332303a207472616e7366657220616d6f756e74206578636565647320625f8201527f616c616e63650000000000000000000000000000000000000000000000000000602082015250565b5f6119986026836111a4565b91506119a38261193e565b604082019050919050565b5f6020820190508181035f8301526119c58161198c565b9050919050565b7f45524332303a206d696e7420746f20746865207a65726f2061646472657373005f82015250565b5f611a00601f836111a4565b9150611a0b826119cc565b602082019050919050565b5f6020820190508181035f830152611a2d816119f4565b9050919050565b7f45524332303a206275726e2066726f6d20746865207a65726f206164647265735f8201527f7300000000000000000000000000000000000000000000000000000000000000602082015250565b5f611a8e6021836111a4565b9150611a9982611a34565b604082019050919050565b5f6020820190508181035f830152611abb81611a82565b9050919050565b7f45524332303a206275726e20616d6f756e7420657863656564732062616c616e5f8201527f6365000000000000000000000000000000000000000000000000000000000000602082015250565b5f611b1c6022836111a4565b9150611b2782611ac2565b604082019050919050565b5f6020820190508181035f830152611b4981611b10565b905091905056fea2646970667358221220ccb9fef702a2f9a141283015670c6924fba459d67d6acfb145dc8f25a8304bda64736f6c63430008150033",
  "linkReferences": {},
  "deployedLinkReferences": {}
}