{
  "_format": "hh-sol-artifact-1",
  "contractName": "LoanManager",
  "sourceName": "contracts/LoanManager.sol",
  "abi": [
    {
      "inputs": [
        {
          "internalType": "address",
          "name": "_nstblHub",
          "type": "address"
        },
        {
          "internalType": "address",
          "name": "_admin",
          "type": "address"
        },
        {
          "internalType": "address",
          "name": "_mapleUSDCPool",
          "type": "address"
        },
        {
          "internalType": "address",
          "name": "_mapleUSDTPool",
          "type": "address"
        }
      ],
      "stateMutability": "nonpayable",
      "type": "constructor"
    },
    {
      "inputs": [],
      "name": "CannotInitImplementation",
      "type": "error"
    },
    {
      "inputs": [],
      "name": "Initialized",
      "type": "error"
    },
    {
      "anonymous": false,
      "inputs": [
        {
          "indexed": true,
          "internalType": "address",
          "name": "asset",
          "type": "address"
        },
        {
          "indexed": false,
          "internalType": "uint256",
          "name": "amount",
          "type": "uint256"
        },
        {
          "indexed": false,
          "internalType": "uint256",
          "name": "lTokens",
          "type": "uint256"
        },
        {
          "indexed": false,
          "internalType": "uint256",
          "name": "mapleShares",
          "type": "uint256"
        }
      ],
      "name": "Deposit",
      "type": "event"
    },
    {
      "anonymous": false,
      "inputs": [
        {
          "indexed": true,
          "internalType": "address",
          "name": "asset",
          "type": "address"
        },
        {
          "indexed": false,
          "internalType": "uint256",
          "name": "shares",
          "type": "uint256"
        },
        {
          "indexed": false,
          "internalType": "uint256",
          "name": "tokensReceived",
          "type": "uint256"
        }
      ],
      "name": "Redeem",
      "type": "event"
    },
    {
      "anonymous": false,
      "inputs": [
        {
          "indexed": true,
          "internalType": "address",
          "name": "asset",
          "type": "address"
        },
        {
          "indexed": false,
          "internalType": "uint256",
          "name": "lTokens",
          "type": "uint256"
        },
        {
          "indexed": false,
          "internalType": "uint256",
          "name": "escrowedShares",
          "type": "uint256"
        }
      ],
      "name": "RequestRedeem",
      "type": "event"
    },
    {
      "inputs": [],
      "name": "MAPLE_POOL_MANAGER_USDC",
      "outputs": [
        {
          "internalType": "address",
          "name": "",
          "type": "address"
        }
      ],
      "stateMutability": "view",
      "type": "function"
    },
    {
      "inputs": [],
      "name": "MAPLE_POOL_MANAGER_USDT",
      "outputs": [
        {
          "internalType": "address",
          "name": "",
          "type": "address"
        }
      ],
      "stateMutability": "view",
      "type": "function"
    },
    {
      "inputs": [],
      "name": "MAPLE_WITHDRAWAL_MANAGER_USDC",
      "outputs": [
        {
          "internalType": "address",
          "name": "",
          "type": "address"
        }
      ],
      "stateMutability": "view",
      "type": "function"
    },
    {
      "inputs": [],
      "name": "MAPLE_WITHDRAWAL_MANAGER_USDT",
      "outputs": [
        {
          "internalType": "address",
          "name": "",
          "type": "address"
        }
      ],
      "stateMutability": "view",
      "type": "function"
    },
    {
      "inputs": [],
      "name": "adjustedDecimals",
      "outputs": [
        {
          "internalType": "uint256",
          "name": "",
          "type": "uint256"
        }
      ],
      "stateMutability": "view",
      "type": "function"
    },
    {
      "inputs": [],
      "name": "admin",
      "outputs": [
        {
          "internalType": "address",
          "name": "",
          "type": "address"
        }
      ],
      "stateMutability": "view",
      "type": "function"
    },
    {
      "inputs": [
        {
          "internalType": "address",
          "name": "",
          "type": "address"
        }
      ],
      "name": "assetsRedeemed",
      "outputs": [
        {
          "internalType": "uint256",
          "name": "",
          "type": "uint256"
        }
      ],
      "stateMutability": "view",
      "type": "function"
    },
    {
      "inputs": [
        {
          "internalType": "address",
          "name": "",
          "type": "address"
        }
      ],
      "name": "awaitingRedemption",
      "outputs": [
        {
          "internalType": "bool",
          "name": "",
          "type": "bool"
        }
      ],
      "stateMutability": "view",
      "type": "function"
    },
    {
      "inputs": [
        {
          "internalType": "address",
          "name": "_asset",
          "type": "address"
        },
        {
          "internalType": "uint256",
          "name": "_amount",
          "type": "uint256"
        }
      ],
      "name": "deposit",
      "outputs": [],
      "stateMutability": "nonpayable",
      "type": "function"
    },
    {
      "inputs": [
        {
          "internalType": "address",
          "name": "",
          "type": "address"
        }
      ],
      "name": "escrowedMapleShares",
      "outputs": [
        {
          "internalType": "uint256",
          "name": "",
          "type": "uint256"
        }
      ],
      "stateMutability": "view",
      "type": "function"
    },
    {
      "inputs": [
        {
          "internalType": "address",
          "name": "_asset",
          "type": "address"
        },
        {
          "internalType": "uint256",
          "name": "_lpTokens",
          "type": "uint256"
        }
      ],
      "name": "getAssets",
      "outputs": [
        {
          "internalType": "uint256",
          "name": "",
          "type": "uint256"
        }
      ],
      "stateMutability": "nonpayable",
      "type": "function"
    },
    {
      "inputs": [
        {
          "internalType": "address",
          "name": "_asset",
          "type": "address"
        },
        {
          "internalType": "uint256",
          "name": "_lpTokens",
          "type": "uint256"
        }
      ],
      "name": "getAssetsWithUnrealisedLosses",
      "outputs": [
        {
          "internalType": "uint256",
          "name": "",
          "type": "uint256"
        }
      ],
      "stateMutability": "nonpayable",
      "type": "function"
    },
    {
      "inputs": [
        {
          "internalType": "address",
          "name": "_asset",
          "type": "address"
        },
        {
          "internalType": "uint256",
          "name": "_amount",
          "type": "uint256"
        }
      ],
      "name": "getExitShares",
      "outputs": [
        {
          "internalType": "uint256",
          "name": "",
          "type": "uint256"
        }
      ],
      "stateMutability": "nonpayable",
      "type": "function"
    },
    {
      "inputs": [
        {
          "internalType": "address",
          "name": "_lpToken",
          "type": "address"
        }
      ],
      "name": "getLpTokensPendingRedemption",
      "outputs": [
        {
          "internalType": "uint256",
          "name": "",
          "type": "uint256"
        }
      ],
      "stateMutability": "view",
      "type": "function"
    },
    {
      "inputs": [
        {
          "internalType": "address",
          "name": "_asset",
          "type": "address"
        },
        {
          "internalType": "uint256",
          "name": "_amount",
          "type": "uint256"
        }
      ],
      "name": "getShares",
      "outputs": [
        {
          "internalType": "uint256",
          "name": "",
          "type": "uint256"
        }
      ],
      "stateMutability": "nonpayable",
      "type": "function"
    },
    {
      "inputs": [
        {
          "internalType": "address",
          "name": "_asset",
          "type": "address"
        }
      ],
      "name": "getTotalAssetsMaple",
      "outputs": [
        {
          "internalType": "uint256",
          "name": "",
          "type": "uint256"
        }
      ],
      "stateMutability": "nonpayable",
      "type": "function"
    },
    {
      "inputs": [
        {
          "internalType": "address",
          "name": "_asset",
          "type": "address"
        }
      ],
      "name": "getUnrealizedLossesMaple",
      "outputs": [
        {
          "internalType": "uint256",
          "name": "",
          "type": "uint256"
        }
      ],
      "stateMutability": "nonpayable",
      "type": "function"
    },
    {
      "inputs": [
        {
          "internalType": "address",
          "name": "_nstblHub",
          "type": "address"
        }
      ],
      "name": "initialize",
      "outputs": [],
      "stateMutability": "nonpayable",
      "type": "function"
    },
    {
      "inputs": [
        {
          "internalType": "uint256",
          "name": "_amount",
          "type": "uint256"
        },
        {
          "internalType": "address",
          "name": "_pool",
          "type": "address"
        },
        {
          "internalType": "address",
          "name": "_poolManager",
          "type": "address"
        }
      ],
      "name": "isValidDepositAmount",
      "outputs": [
        {
          "internalType": "bool",
          "name": "",
          "type": "bool"
        }
      ],
      "stateMutability": "nonpayable",
      "type": "function"
    },
    {
      "inputs": [],
      "name": "lUSDC",
      "outputs": [
        {
          "internalType": "contract LMTokenLP",
          "name": "",
          "type": "address"
        }
      ],
      "stateMutability": "view",
      "type": "function"
    },
    {
      "inputs": [],
      "name": "lUSDT",
      "outputs": [
        {
          "internalType": "contract LMTokenLP",
          "name": "",
          "type": "address"
        }
      ],
      "stateMutability": "view",
      "type": "function"
    },
    {
      "inputs": [],
      "name": "mapleUSDCPool",
      "outputs": [
        {
          "internalType": "address",
          "name": "",
          "type": "address"
        }
      ],
      "stateMutability": "view",
      "type": "function"
    },
    {
      "inputs": [],
      "name": "mapleUSDTPool",
      "outputs": [
        {
          "internalType": "address",
          "name": "",
          "type": "address"
        }
      ],
      "stateMutability": "view",
      "type": "function"
    },
    {
      "inputs": [],
      "name": "nstblHub",
      "outputs": [
        {
          "internalType": "address",
          "name": "",
          "type": "address"
        }
      ],
      "stateMutability": "view",
      "type": "function"
    },
    {
      "inputs": [
        {
          "internalType": "address",
          "name": "_asset",
          "type": "address"
        },
        {
          "internalType": "uint256",
          "name": "_amount",
          "type": "uint256"
        }
      ],
      "name": "previewDepositAssets",
      "outputs": [
        {
          "internalType": "uint256",
          "name": "",
          "type": "uint256"
        }
      ],
      "stateMutability": "nonpayable",
      "type": "function"
    },
    {
      "inputs": [
        {
          "internalType": "address",
          "name": "_asset",
          "type": "address"
        },
        {
          "internalType": "uint256",
          "name": "_shares",
          "type": "uint256"
        }
      ],
      "name": "previewRedeem",
      "outputs": [
        {
          "internalType": "uint256",
          "name": "",
          "type": "uint256"
        }
      ],
      "stateMutability": "nonpayable",
      "type": "function"
    },
    {
      "inputs": [
        {
          "internalType": "address",
          "name": "_asset",
          "type": "address"
        }
      ],
      "name": "redeem",
      "outputs": [],
      "stateMutability": "nonpayable",
      "type": "function"
    },
    {
      "inputs": [
        {
          "internalType": "address",
          "name": "_asset",
          "type": "address"
        },
        {
          "internalType": "uint256",
          "name": "_lpTokens",
          "type": "uint256"
        }
      ],
      "name": "requestRedeem",
      "outputs": [],
      "stateMutability": "nonpayable",
      "type": "function"
    },
    {
      "inputs": [
        {
          "internalType": "address",
          "name": "_caller",
          "type": "address"
        }
      ],
      "name": "setAuthorizedCaller",
      "outputs": [],
      "stateMutability": "nonpayable",
      "type": "function"
    },
    {
      "inputs": [
        {
          "internalType": "address",
          "name": "",
          "type": "address"
        }
      ],
      "name": "totalAssetsReceived",
      "outputs": [
        {
          "internalType": "uint256",
          "name": "",
          "type": "uint256"
        }
      ],
      "stateMutability": "view",
      "type": "function"
    },
    {
      "inputs": [
        {
          "internalType": "address",
          "name": "",
          "type": "address"
        }
      ],
      "name": "totalLPTokensBurned",
      "outputs": [
        {
          "internalType": "uint256",
          "name": "",
          "type": "uint256"
        }
      ],
      "stateMutability": "view",
      "type": "function"
    },
    {
      "inputs": [
        {
          "internalType": "address",
          "name": "",
          "type": "address"
        }
      ],
      "name": "totalLPTokensMinted",
      "outputs": [
        {
          "internalType": "uint256",
          "name": "",
          "type": "uint256"
        }
      ],
      "stateMutability": "view",
      "type": "function"
    },
    {
      "inputs": [
        {
          "internalType": "address",
          "name": "",
          "type": "address"
        }
      ],
      "name": "totalSharesReceived",
      "outputs": [
        {
          "internalType": "uint256",
          "name": "",
          "type": "uint256"
        }
      ],
      "stateMutability": "view",
      "type": "function"
    },
    {
      "inputs": [],
      "name": "usdc",
      "outputs": [
        {
          "internalType": "address",
          "name": "",
          "type": "address"
        }
      ],
      "stateMutability": "view",
      "type": "function"
    },
    {
      "inputs": [],
      "name": "usdt",
      "outputs": [
        {
          "internalType": "address",
          "name": "",
          "type": "address"
        }
      ],
      "stateMutability": "view",
      "type": "function"
    }
  ],
  "bytecode": "0x61022060405273219654a61a0bc394055652986be403fa14405bb873ffffffffffffffffffffffffffffffffffffffff166101209073ffffffffffffffffffffffffffffffffffffffff1681525073e76b219f83e887e2503e14c343bb7e0b62a7af5d73ffffffffffffffffffffffffffffffffffffffff166101409073ffffffffffffffffffffffffffffffffffffffff16815250731146691782c089bcf0b19acb8620943a35eebd1273ffffffffffffffffffffffffffffffffffffffff166101609073ffffffffffffffffffffffffffffffffffffffff1681525073f0a66f70064ad3198abb35aae26b1eeeaea62c4b73ffffffffffffffffffffffffffffffffffffffff166101809073ffffffffffffffffffffffffffffffffffffffff16815250600160085534801562000136575f80fd5b50604051620075513803806200755183398181016040528101906200015c91906200054b565b3073ffffffffffffffffffffffffffffffffffffffff1660808173ffffffffffffffffffffffffffffffffffffffff1681525050835f806101000a81548173ffffffffffffffffffffffffffffffffffffffff021916908373ffffffffffffffffffffffffffffffffffffffff1602179055508273ffffffffffffffffffffffffffffffffffffffff166102008173ffffffffffffffffffffffffffffffffffffffff16815250508173ffffffffffffffffffffffffffffffffffffffff1660e08173ffffffffffffffffffffffffffffffffffffffff16815250508073ffffffffffffffffffffffffffffffffffffffff166101008173ffffffffffffffffffffffffffffffffffffffff168152505073a0b86991c6218b36c1d19d4a2e9eb0ce3606eb4873ffffffffffffffffffffffffffffffffffffffff1660a08173ffffffffffffffffffffffffffffffffffffffff168152505073dac17f958d2ee523a2206206994597c13d831ec773ffffffffffffffffffffffffffffffffffffffff1660c08173ffffffffffffffffffffffffffffffffffffffff1681525050826040516200030c90620004d8565b62000318919062000677565b604051809103905ff08015801562000332573d5f803e3d5ffd5b5073ffffffffffffffffffffffffffffffffffffffff166101a08173ffffffffffffffffffffffffffffffffffffffff1681525050826040516200037690620004d8565b62000382919062000758565b604051809103905ff0801580156200039c573d5f803e3d5ffd5b5073ffffffffffffffffffffffffffffffffffffffff166101c08173ffffffffffffffffffffffffffffffffffffffff168152505060e05173ffffffffffffffffffffffffffffffffffffffff1663313ce5676040518163ffffffff1660e01b81526004016020604051808303815f875af11580156200041e573d5f803e3d5ffd5b505050506040513d601f19601f82011682018060405250810190620004449190620007d8565b6101a05173ffffffffffffffffffffffffffffffffffffffff1663313ce5676040518163ffffffff1660e01b8152600401602060405180830381865afa15801562000491573d5f803e3d5ffd5b505050506040513d601f19601f82011682018060405250810190620004b79190620007d8565b620004c3919062000835565b60ff166101e081815250505050505062000870565b612213806200533e83390190565b5f80fd5b5f73ffffffffffffffffffffffffffffffffffffffff82169050919050565b5f6200051582620004ea565b9050919050565b620005278162000509565b811462000532575f80fd5b50565b5f8151905062000545816200051c565b92915050565b5f805f8060808587031215620005665762000565620004e6565b5b5f620005758782880162000535565b9450506020620005888782880162000535565b93505060406200059b8782880162000535565b9250506060620005ae8782880162000535565b91505092959194509250565b5f82825260208201905092915050565b7f4c6f616e204d616e6167657220555344430000000000000000000000000000005f82015250565b5f62000600601183620005ba565b91506200060d82620005ca565b602082019050919050565b7f6c555344430000000000000000000000000000000000000000000000000000005f82015250565b5f6200064e600583620005ba565b91506200065b8262000618565b602082019050919050565b620006718162000509565b82525050565b5f6060820190508181035f8301526200069081620005f2565b90508181036020830152620006a58162000640565b9050620006b6604083018462000666565b92915050565b7f4c6f616e204d616e6167657220555344540000000000000000000000000000005f82015250565b5f620006f2601183620005ba565b9150620006ff82620006bc565b602082019050919050565b7f6c555344540000000000000000000000000000000000000000000000000000005f82015250565b5f62000740600583620005ba565b91506200074d826200070a565b602082019050919050565b5f6060820190508181035f8301526200077181620006e4565b90508181036020830152620007868162000732565b905062000797604083018462000666565b92915050565b5f60ff82169050919050565b620007b4816200079d565b8114620007bf575f80fd5b50565b5f81519050620007d281620007a9565b92915050565b5f60208284031215620007f057620007ef620004e6565b5b5f620007ff84828501620007c2565b91505092915050565b7f4e487b71000000000000000000000000000000000000000000000000000000005f52601160045260245ffd5b5f62000841826200079d565b91506200084e836200079d565b9250828203905060ff8111156200086a576200086962000808565b5b92915050565b60805160a05160c05160e05161010051610120516101405161016051610180516101a0516101c0516101e0516102005161484f62000aef5f395f8181611f060152612b4701525f8181610ad601528181610c0001528181611fd7015281816124240152818161254e015281816125f201528181612dbc01528181612fd5015281816130e201526134c801525f818161127f015281816115d301528181611900015261205301525f818161119a0152818161150f0152818161181c015281816120770152612dfa01525f8181610970015261192101525f818161183d0152611ee201525f81816112a0015261195501525f81816111bb0152612b6b01525f8181610bc401528181610ed60152818161125e015281816115b2015281816118df01528181611c3c01528181611e3b01528181612246015281816125120152818161280f01528181612a870152612b2301525f8181610a9a01528181610de301528181611179015281816114ee015281816117fb01528181611b3901528181611d480152818161215e015281816123e80152818161271c015281816128b8015261299f01525f8181610b7101528181610ca401528181610e83015281816111e60152818161123d0152818161153a0152818161159101528181611868015281816118be01528181611be901528181611de8015281816121f3015281816124bf015281816127bc0152612a3401525f8181610a4701528181610d9001528181610f94015281816111010152818161115801528181611476015281816114cd01528181611784015281816117da01528181611ae601528181611cf50152818161210b01528181612395015281816126c9015261294c01525f6119b1015261484f5ff3fe608060405234801561000f575f80fd5b506004361061020f575f3560e01c8063c4d66de811610123578063e66fa8fa116100ab578063ed2872211161007a578063ed287221146106ad578063edb5b3b8146106cb578063f0433052146106fb578063f851a44014610719578063fe7a2369146107375761020f565b8063e66fa8fa146105ff578063e6f34b691461062f578063eab2ed001461065f578063eb11d8741461067d5761020f565b8063cf0d7943116100f2578063cf0d794314610559578063cf8fbec914610577578063d8fa185c14610593578063da1d890e146105c3578063dbab4c28146105e15761020f565b8063c4d66de8146104ad578063cbaad084146104c9578063cbe52ae3146104f9578063ccb7612f146105295761020f565b806347e7ef24116101a65780638907c5ab116101755780638907c5ab146103f557806395a2251f14610425578063aba5e33e14610441578063b376cc911461045f578063ba3a35501461047d5761020f565b806347e7ef241461035d57806350f045a61461037957806365b89f9f146103a957806379bcb3b4146103c55761020f565b806333a7b07a116101e257806333a7b07a146102af578063383c2ef2146102df5780633e2b583b1461030f5780633e413bee1461033f5761020f565b806308c1c9a31461021357806313e70b8714610243578063150260a9146102615780632f48ab7d14610291575b5f80fd5b61022d60048036038101906102289190613b8a565b610755565b60405161023a9190613bf4565b60405180910390f35b61024b61096e565b6040516102589190613c1c565b60405180910390f35b61027b60048036038101906102769190613c35565b610992565b6040516102889190613c82565b60405180910390f35b610299610ca2565b6040516102a69190613c1c565b60405180910390f35b6102c960048036038101906102c49190613c9b565b610cc6565b6040516102d69190613c82565b60405180910390f35b6102f960048036038101906102f49190613c35565b610cdb565b6040516103069190613c82565b60405180910390f35b61032960048036038101906103249190613c9b565b610f7d565b6040516103369190613c82565b60405180910390f35b610347610f92565b6040516103549190613c1c565b60405180910390f35b61037760048036038101906103729190613c35565b610fb6565b005b610393600480360381019061038e9190613c9b565b6112d3565b6040516103a09190613c82565b60405180910390f35b6103c360048036038101906103be9190613c35565b6112e8565b005b6103df60048036038101906103da9190613c9b565b611607565b6040516103ec9190613c82565b60405180910390f35b61040f600480360381019061040a9190613c9b565b61161c565b60405161041c9190613bf4565b60405180910390f35b61043f600480360381019061043a9190613c9b565b611639565b005b610449611953565b6040516104569190613c1c565b60405180910390f35b610467611977565b6040516104749190613c1c565b60405180910390f35b61049760048036038101906104929190613c9b565b61199a565b6040516104a49190613c82565b60405180910390f35b6104c760048036038101906104c29190613c9b565b6119af565b005b6104e360048036038101906104de9190613c9b565b611acd565b6040516104f09190613c82565b60405180910390f35b610513600480360381019061050e9190613c35565b611ae2565b6040516105209190613c82565b60405180910390f35b610543600480360381019061053e9190613c35565b611cf1565b6040516105509190613c82565b60405180910390f35b610561611ee0565b60405161056e9190613c1c565b60405180910390f35b610591600480360381019061058c9190613c9b565b611f04565b005b6105ad60048036038101906105a89190613c9b565b611fd4565b6040516105ba9190613c82565b60405180910390f35b6105cb612051565b6040516105d89190613d21565b60405180910390f35b6105e9612075565b6040516105f69190613d21565b60405180910390f35b61061960048036038101906106149190613c9b565b612099565b6040516106269190613c82565b60405180910390f35b61064960048036038101906106449190613c35565b6122e0565b6040516106569190613c82565b60405180910390f35b6106676125f0565b6040516106749190613c82565b60405180910390f35b61069760048036038101906106929190613c35565b612614565b6040516106a49190613c82565b60405180910390f35b6106b56128b6565b6040516106c29190613c1c565b60405180910390f35b6106e560048036038101906106e09190613c9b565b6128da565b6040516106f29190613c82565b60405180910390f35b610703612b21565b6040516107109190613c1c565b60405180910390f35b610721612b45565b60405161072e9190613c1c565b60405180910390f35b61073f612b69565b60405161074c9190613c1c565b60405180910390f35b5f808273ffffffffffffffffffffffffffffffffffffffff166040516024016040516020818303038152906040527f76687d3d000000000000000000000000000000000000000000000000000000007bffffffffffffffffffffffffffffffffffffffffffffffffffffffff19166020820180517bffffffffffffffffffffffffffffffffffffffffffffffffffffffff83818316178352505050506040516107fe9190613da6565b5f60405180830381855afa9150503d805f8114610836576040519150601f19603f3d011682016040523d82523d5f602084013e61083b565b606091505b509150505f8161084a90613df4565b5f1c90505f8573ffffffffffffffffffffffffffffffffffffffff166301e1d1146040518163ffffffff1660e01b81526004016020604051808303815f875af1158015610899573d5f803e3d5ffd5b505050506040513d601f19601f820116820180604052508101906108bd9190613e6e565b90505f8673ffffffffffffffffffffffffffffffffffffffff1663ef8b30f7896040518263ffffffff1660e01b81526004016108f99190613c82565b6020604051808303815f875af1158015610915573d5f803e3d5ffd5b505050506040513d601f19601f820116820180604052508101906109399190613e6e565b90505f81118015610954575081836109519190613ec6565b88105b61095e575f610961565b60015b9450505050509392505050565b7f000000000000000000000000000000000000000000000000000000000000000081565b5f82825f73ffffffffffffffffffffffffffffffffffffffff168273ffffffffffffffffffffffffffffffffffffffff1603610a03576040517f08c379a00000000000000000000000000000000000000000000000000000000081526004016109fa90613f53565b60405180910390fd5b5f8111610a45576040517f08c379a0000000000000000000000000000000000000000000000000000000008152600401610a3c90613fbb565b60405180910390fd5b7f000000000000000000000000000000000000000000000000000000000000000073ffffffffffffffffffffffffffffffffffffffff168573ffffffffffffffffffffffffffffffffffffffff1603610b6f577f000000000000000000000000000000000000000000000000000000000000000073ffffffffffffffffffffffffffffffffffffffff166350496cbd7f0000000000000000000000000000000000000000000000000000000000000000600a610b019190614108565b86610b0c919061417f565b6040518263ffffffff1660e01b8152600401610b289190613c82565b6020604051808303815f875af1158015610b44573d5f803e3d5ffd5b505050506040513d601f19601f82011682018060405250810190610b689190613e6e565b9250610c9a565b7f000000000000000000000000000000000000000000000000000000000000000073ffffffffffffffffffffffffffffffffffffffff168573ffffffffffffffffffffffffffffffffffffffff1603610c99577f000000000000000000000000000000000000000000000000000000000000000073ffffffffffffffffffffffffffffffffffffffff166350496cbd7f0000000000000000000000000000000000000000000000000000000000000000600a610c2b9190614108565b86610c36919061417f565b6040518263ffffffff1660e01b8152600401610c529190613c82565b6020604051808303815f875af1158015610c6e573d5f803e3d5ffd5b505050506040513d601f19601f82011682018060405250810190610c929190613e6e565b9250610c9a565b5b505092915050565b7f000000000000000000000000000000000000000000000000000000000000000081565b6002602052805f5260405f205f915090505481565b5f82825f73ffffffffffffffffffffffffffffffffffffffff168273ffffffffffffffffffffffffffffffffffffffff1603610d4c576040517f08c379a0000000000000000000000000000000000000000000000000000000008152600401610d4390613f53565b60405180910390fd5b5f8111610d8e576040517f08c379a0000000000000000000000000000000000000000000000000000000008152600401610d8590613fbb565b60405180910390fd5b7f000000000000000000000000000000000000000000000000000000000000000073ffffffffffffffffffffffffffffffffffffffff168573ffffffffffffffffffffffffffffffffffffffff1603610e81577f000000000000000000000000000000000000000000000000000000000000000073ffffffffffffffffffffffffffffffffffffffff1663c6e6f592856040518263ffffffff1660e01b8152600401610e3a9190613c82565b6020604051808303815f875af1158015610e56573d5f803e3d5ffd5b505050506040513d601f19601f82011682018060405250810190610e7a9190613e6e565b9250610f75565b7f000000000000000000000000000000000000000000000000000000000000000073ffffffffffffffffffffffffffffffffffffffff168573ffffffffffffffffffffffffffffffffffffffff1603610f74577f000000000000000000000000000000000000000000000000000000000000000073ffffffffffffffffffffffffffffffffffffffff1663c6e6f592856040518263ffffffff1660e01b8152600401610f2d9190613c82565b6020604051808303815f875af1158015610f49573d5f803e3d5ffd5b505050506040513d601f19601f82011682018060405250810190610f6d9190613e6e565b9250610f75565b5b505092915050565b6006602052805f5260405f205f915090505481565b7f000000000000000000000000000000000000000000000000000000000000000081565b5f8054906101000a900473ffffffffffffffffffffffffffffffffffffffff1673ffffffffffffffffffffffffffffffffffffffff163373ffffffffffffffffffffffffffffffffffffffff1614611043576040517f08c379a000000000000000000000000000000000000000000000000000000000815260040161103a906141f9565b60405180910390fd5b600160085414611088576040517f08c379a000000000000000000000000000000000000000000000000000000000815260040161107f90614261565b60405180910390fd5b6002600881905550815f73ffffffffffffffffffffffffffffffffffffffff168173ffffffffffffffffffffffffffffffffffffffff16036110ff576040517f08c379a00000000000000000000000000000000000000000000000000000000081526004016110f690613f53565b60405180910390fd5b7f000000000000000000000000000000000000000000000000000000000000000073ffffffffffffffffffffffffffffffffffffffff168373ffffffffffffffffffffffffffffffffffffffff16036111e4576111df827f00000000000000000000000000000000000000000000000000000000000000007f00000000000000000000000000000000000000000000000000000000000000007f00000000000000000000000000000000000000000000000000000000000000007f0000000000000000000000000000000000000000000000000000000000000000612b8d565b6112c6565b7f000000000000000000000000000000000000000000000000000000000000000073ffffffffffffffffffffffffffffffffffffffff168373ffffffffffffffffffffffffffffffffffffffff16036112c5576112c4827f00000000000000000000000000000000000000000000000000000000000000007f00000000000000000000000000000000000000000000000000000000000000007f00000000000000000000000000000000000000000000000000000000000000007f0000000000000000000000000000000000000000000000000000000000000000612b8d565b5b5b5060016008819055505050565b6007602052805f5260405f205f915090505481565b5f8054906101000a900473ffffffffffffffffffffffffffffffffffffffff1673ffffffffffffffffffffffffffffffffffffffff163373ffffffffffffffffffffffffffffffffffffffff1614611375576040517f08c379a000000000000000000000000000000000000000000000000000000000815260040161136c906141f9565b60405180910390fd5b6001600854146113ba576040517f08c379a00000000000000000000000000000000000000000000000000000000081526004016113b190614261565b60405180910390fd5b600260088190555081815f73ffffffffffffffffffffffffffffffffffffffff168273ffffffffffffffffffffffffffffffffffffffff1603611432576040517f08c379a000000000000000000000000000000000000000000000000000000000815260040161142990613f53565b60405180910390fd5b5f8111611474576040517f08c379a000000000000000000000000000000000000000000000000000000000815260040161146b90613fbb565b60405180910390fd5b7f000000000000000000000000000000000000000000000000000000000000000073ffffffffffffffffffffffffffffffffffffffff168473ffffffffffffffffffffffffffffffffffffffff160361153857611533837f00000000000000000000000000000000000000000000000000000000000000007f00000000000000000000000000000000000000000000000000000000000000007f0000000000000000000000000000000000000000000000000000000000000000612f49565b6115f9565b7f000000000000000000000000000000000000000000000000000000000000000073ffffffffffffffffffffffffffffffffffffffff168473ffffffffffffffffffffffffffffffffffffffff16036115f8576115f7837f00000000000000000000000000000000000000000000000000000000000000007f00000000000000000000000000000000000000000000000000000000000000007f0000000000000000000000000000000000000000000000000000000000000000612f49565b5b5b505060016008819055505050565b6004602052805f5260405f205f915090505481565b6001602052805f5260405f205f915054906101000a900460ff1681565b5f8054906101000a900473ffffffffffffffffffffffffffffffffffffffff1673ffffffffffffffffffffffffffffffffffffffff163373ffffffffffffffffffffffffffffffffffffffff16146116c6576040517f08c379a00000000000000000000000000000000000000000000000000000000081526004016116bd906141f9565b60405180910390fd5b60016008541461170b576040517f08c379a000000000000000000000000000000000000000000000000000000000815260040161170290614261565b60405180910390fd5b6002600881905550805f73ffffffffffffffffffffffffffffffffffffffff168173ffffffffffffffffffffffffffffffffffffffff1603611782576040517f08c379a000000000000000000000000000000000000000000000000000000000815260040161177990613f53565b60405180910390fd5b7f000000000000000000000000000000000000000000000000000000000000000073ffffffffffffffffffffffffffffffffffffffff168273ffffffffffffffffffffffffffffffffffffffff1603611866576118617f00000000000000000000000000000000000000000000000000000000000000007f00000000000000000000000000000000000000000000000000000000000000007f00000000000000000000000000000000000000000000000000000000000000007f000000000000000000000000000000000000000000000000000000000000000061329e565b611947565b7f000000000000000000000000000000000000000000000000000000000000000073ffffffffffffffffffffffffffffffffffffffff168273ffffffffffffffffffffffffffffffffffffffff1603611946576119457f00000000000000000000000000000000000000000000000000000000000000007f00000000000000000000000000000000000000000000000000000000000000007f00000000000000000000000000000000000000000000000000000000000000007f000000000000000000000000000000000000000000000000000000000000000061329e565b5b5b50600160088190555050565b7f000000000000000000000000000000000000000000000000000000000000000081565b5f8054906101000a900473ffffffffffffffffffffffffffffffffffffffff1681565b6005602052805f5260405f205f915090505481565b7f000000000000000000000000000000000000000000000000000000000000000073ffffffffffffffffffffffffffffffffffffffff163073ffffffffffffffffffffffffffffffffffffffff1603611a34576040517f971d041400000000000000000000000000000000000000000000000000000000815260040160405180910390fd5b611a3c6136be565b611a446136c7565b11611a7b576040517f5daa87a000000000000000000000000000000000000000000000000000000000815260040160405180910390fd5b611a8b611a866136c7565b6136cf565b805f806101000a81548173ffffffffffffffffffffffffffffffffffffffff021916908373ffffffffffffffffffffffffffffffffffffffff16021790555050565b6003602052805f5260405f205f915090505481565b5f807f000000000000000000000000000000000000000000000000000000000000000073ffffffffffffffffffffffffffffffffffffffff168473ffffffffffffffffffffffffffffffffffffffff1603611be7577f000000000000000000000000000000000000000000000000000000000000000073ffffffffffffffffffffffffffffffffffffffff16634cdad50664e8d4a5100085611b84919061417f565b6040518263ffffffff1660e01b8152600401611ba09190613c82565b6020604051808303815f875af1158015611bbc573d5f803e3d5ffd5b505050506040513d601f19601f82011682018060405250810190611be09190613e6e565b9050611ce7565b7f000000000000000000000000000000000000000000000000000000000000000073ffffffffffffffffffffffffffffffffffffffff168473ffffffffffffffffffffffffffffffffffffffff1603611ce6577f000000000000000000000000000000000000000000000000000000000000000073ffffffffffffffffffffffffffffffffffffffff16634cdad50664e8d4a5100085611c87919061417f565b6040518263ffffffff1660e01b8152600401611ca39190613c82565b6020604051808303815f875af1158015611cbf573d5f803e3d5ffd5b505050506040513d601f19601f82011682018060405250810190611ce39190613e6e565b90505b5b8091505092915050565b5f807f000000000000000000000000000000000000000000000000000000000000000073ffffffffffffffffffffffffffffffffffffffff168473ffffffffffffffffffffffffffffffffffffffff1603611de6577f000000000000000000000000000000000000000000000000000000000000000073ffffffffffffffffffffffffffffffffffffffff1663ef8b30f7846040518263ffffffff1660e01b8152600401611d9f9190613c82565b6020604051808303815f875af1158015611dbb573d5f803e3d5ffd5b505050506040513d601f19601f82011682018060405250810190611ddf9190613e6e565b9050611ed6565b7f000000000000000000000000000000000000000000000000000000000000000073ffffffffffffffffffffffffffffffffffffffff168473ffffffffffffffffffffffffffffffffffffffff1603611ed5577f000000000000000000000000000000000000000000000000000000000000000073ffffffffffffffffffffffffffffffffffffffff1663ef8b30f7846040518263ffffffff1660e01b8152600401611e929190613c82565b6020604051808303815f875af1158015611eae573d5f803e3d5ffd5b505050506040513d601f19601f82011682018060405250810190611ed29190613e6e565b90505b5b8091505092915050565b7f000000000000000000000000000000000000000000000000000000000000000081565b7f000000000000000000000000000000000000000000000000000000000000000073ffffffffffffffffffffffffffffffffffffffff163373ffffffffffffffffffffffffffffffffffffffff1614611f92576040517f08c379a0000000000000000000000000000000000000000000000000000000008152600401611f89906142c9565b60405180910390fd5b805f806101000a81548173ffffffffffffffffffffffffffffffffffffffff021916908373ffffffffffffffffffffffffffffffffffffffff16021790555050565b5f7f0000000000000000000000000000000000000000000000000000000000000000600a6120029190614108565b60065f8473ffffffffffffffffffffffffffffffffffffffff1673ffffffffffffffffffffffffffffffffffffffff1681526020019081526020015f205461204a91906142e7565b9050919050565b7f000000000000000000000000000000000000000000000000000000000000000081565b7f000000000000000000000000000000000000000000000000000000000000000081565b5f815f73ffffffffffffffffffffffffffffffffffffffff168173ffffffffffffffffffffffffffffffffffffffff1603612109576040517f08c379a000000000000000000000000000000000000000000000000000000000815260040161210090613f53565b60405180910390fd5b7f000000000000000000000000000000000000000000000000000000000000000073ffffffffffffffffffffffffffffffffffffffff168373ffffffffffffffffffffffffffffffffffffffff16036121f1577f000000000000000000000000000000000000000000000000000000000000000073ffffffffffffffffffffffffffffffffffffffff166367e2ba236040518163ffffffff1660e01b81526004016020604051808303815f875af11580156121c6573d5f803e3d5ffd5b505050506040513d601f19601f820116820180604052508101906121ea9190613e6e565b91506122da565b7f000000000000000000000000000000000000000000000000000000000000000073ffffffffffffffffffffffffffffffffffffffff168373ffffffffffffffffffffffffffffffffffffffff16036122d9577f000000000000000000000000000000000000000000000000000000000000000073ffffffffffffffffffffffffffffffffffffffff166367e2ba236040518163ffffffff1660e01b81526004016020604051808303815f875af11580156122ae573d5f803e3d5ffd5b505050506040513d601f19601f820116820180604052508101906122d29190613e6e565b91506122da565b5b50919050565b5f82825f73ffffffffffffffffffffffffffffffffffffffff168273ffffffffffffffffffffffffffffffffffffffff1603612351576040517f08c379a000000000000000000000000000000000000000000000000000000000815260040161234890613f53565b60405180910390fd5b5f8111612393576040517f08c379a000000000000000000000000000000000000000000000000000000000815260040161238a90613fbb565b60405180910390fd5b7f000000000000000000000000000000000000000000000000000000000000000073ffffffffffffffffffffffffffffffffffffffff168573ffffffffffffffffffffffffffffffffffffffff16036124bd577f000000000000000000000000000000000000000000000000000000000000000073ffffffffffffffffffffffffffffffffffffffff166307a2d13a7f0000000000000000000000000000000000000000000000000000000000000000600a61244f9190614108565b8661245a919061417f565b6040518263ffffffff1660e01b81526004016124769190613c82565b6020604051808303815f875af1158015612492573d5f803e3d5ffd5b505050506040513d601f19601f820116820180604052508101906124b69190613e6e565b92506125e8565b7f000000000000000000000000000000000000000000000000000000000000000073ffffffffffffffffffffffffffffffffffffffff168573ffffffffffffffffffffffffffffffffffffffff16036125e7577f000000000000000000000000000000000000000000000000000000000000000073ffffffffffffffffffffffffffffffffffffffff166307a2d13a7f0000000000000000000000000000000000000000000000000000000000000000600a6125799190614108565b86612584919061417f565b6040518263ffffffff1660e01b81526004016125a09190613c82565b6020604051808303815f875af11580156125bc573d5f803e3d5ffd5b505050506040513d601f19601f820116820180604052508101906125e09190613e6e565b92506125e8565b5b505092915050565b7f000000000000000000000000000000000000000000000000000000000000000081565b5f82825f73ffffffffffffffffffffffffffffffffffffffff168273ffffffffffffffffffffffffffffffffffffffff1603612685576040517f08c379a000000000000000000000000000000000000000000000000000000000815260040161267c90613f53565b60405180910390fd5b5f81116126c7576040517f08c379a00000000000000000000000000000000000000000000000000000000081526004016126be90613fbb565b60405180910390fd5b7f000000000000000000000000000000000000000000000000000000000000000073ffffffffffffffffffffffffffffffffffffffff168573ffffffffffffffffffffffffffffffffffffffff16036127ba577f000000000000000000000000000000000000000000000000000000000000000073ffffffffffffffffffffffffffffffffffffffff1663a58c3eff856040518263ffffffff1660e01b81526004016127739190613c82565b6020604051808303815f875af115801561278f573d5f803e3d5ffd5b505050506040513d601f19601f820116820180604052508101906127b39190613e6e565b92506128ae565b7f000000000000000000000000000000000000000000000000000000000000000073ffffffffffffffffffffffffffffffffffffffff168573ffffffffffffffffffffffffffffffffffffffff16036128ad577f000000000000000000000000000000000000000000000000000000000000000073ffffffffffffffffffffffffffffffffffffffff1663a58c3eff856040518263ffffffff1660e01b81526004016128669190613c82565b6020604051808303815f875af1158015612882573d5f803e3d5ffd5b505050506040513d601f19601f820116820180604052508101906128a69190613e6e565b92506128ae565b5b505092915050565b7f000000000000000000000000000000000000000000000000000000000000000081565b5f815f73ffffffffffffffffffffffffffffffffffffffff168173ffffffffffffffffffffffffffffffffffffffff160361294a576040517f08c379a000000000000000000000000000000000000000000000000000000000815260040161294190613f53565b60405180910390fd5b7f000000000000000000000000000000000000000000000000000000000000000073ffffffffffffffffffffffffffffffffffffffff168373ffffffffffffffffffffffffffffffffffffffff1603612a32577f000000000000000000000000000000000000000000000000000000000000000073ffffffffffffffffffffffffffffffffffffffff166301e1d1146040518163ffffffff1660e01b81526004016020604051808303815f875af1158015612a07573d5f803e3d5ffd5b505050506040513d601f19601f82011682018060405250810190612a2b9190613e6e565b9150612b1b565b7f000000000000000000000000000000000000000000000000000000000000000073ffffffffffffffffffffffffffffffffffffffff168373ffffffffffffffffffffffffffffffffffffffff1603612b1a577f000000000000000000000000000000000000000000000000000000000000000073ffffffffffffffffffffffffffffffffffffffff166301e1d1146040518163ffffffff1660e01b81526004016020604051808303815f875af1158015612aef573d5f803e3d5ffd5b505050506040513d601f19601f82011682018060405250810190612b139190613e6e565b9150612b1b565b5b50919050565b7f000000000000000000000000000000000000000000000000000000000000000081565b7f000000000000000000000000000000000000000000000000000000000000000081565b7f000000000000000000000000000000000000000000000000000000000000000081565b612b98858483610755565b612bd7576040517f08c379a0000000000000000000000000000000000000000000000000000000008152600401612bce90614372565b60405180910390fd5b5f80612c063330898973ffffffffffffffffffffffffffffffffffffffff166136d6909392919063ffffffff16565b612c3185888873ffffffffffffffffffffffffffffffffffffffff1661375f9092919063ffffffff16565b8660025f8873ffffffffffffffffffffffffffffffffffffffff1673ffffffffffffffffffffffffffffffffffffffff1681526020019081526020015f205f828254612c7d9190614390565b925050819055508473ffffffffffffffffffffffffffffffffffffffff1663ef8b30f7886040518263ffffffff1660e01b8152600401612cbd9190613c82565b6020604051808303815f875af1158015612cd9573d5f803e3d5ffd5b505050506040513d601f19601f82011682018060405250810190612cfd9190613e6e565b90508060035f8873ffffffffffffffffffffffffffffffffffffffff1673ffffffffffffffffffffffffffffffffffffffff1681526020019081526020015f205f828254612d4b9190614390565b925050819055508473ffffffffffffffffffffffffffffffffffffffff16636e553f6588306040518363ffffffff1660e01b8152600401612d8d9291906143c3565b5f604051808303815f87803b158015612da4575f80fd5b505af1158015612db6573d5f803e3d5ffd5b505050507f0000000000000000000000000000000000000000000000000000000000000000600a612de79190614108565b81612df291906142e7565b91508160045f7f000000000000000000000000000000000000000000000000000000000000000073ffffffffffffffffffffffffffffffffffffffff1673ffffffffffffffffffffffffffffffffffffffff1681526020019081526020015f205f828254612e609190614390565b925050819055508373ffffffffffffffffffffffffffffffffffffffff166340c10f195f8054906101000a900473ffffffffffffffffffffffffffffffffffffffff16846040518363ffffffff1660e01b8152600401612ec19291906143ea565b5f604051808303815f87803b158015612ed8575f80fd5b505af1158015612eea573d5f803e3d5ffd5b505050508573ffffffffffffffffffffffffffffffffffffffff167f36af321ec8d3c75236829c5317affd40ddb308863a1236d2d277a4025cccee1e888484604051612f3893929190614411565b60405180910390a250505050505050565b60015f8473ffffffffffffffffffffffffffffffffffffffff1673ffffffffffffffffffffffffffffffffffffffff1681526020019081526020015f205f9054906101000a900460ff1615612fd3576040517f08c379a0000000000000000000000000000000000000000000000000000000008152600401612fca90614490565b60405180910390fd5b7f0000000000000000000000000000000000000000000000000000000000000000600a6130009190614108565b8461300b919061417f565b8273ffffffffffffffffffffffffffffffffffffffff166370a08231306040518263ffffffff1660e01b81526004016130449190613c1c565b602060405180830381865afa15801561305f573d5f803e3d5ffd5b505050506040513d601f19601f820116820180604052508101906130839190613e6e565b10156130c4576040517f08c379a00000000000000000000000000000000000000000000000000000000081526004016130bb906144f8565b60405180910390fd5b8173ffffffffffffffffffffffffffffffffffffffff1663107703ab7f0000000000000000000000000000000000000000000000000000000000000000600a61310d9190614108565b86613118919061417f565b306040518363ffffffff1660e01b81526004016131369291906143c3565b6020604051808303815f875af1158015613152573d5f803e3d5ffd5b505050506040513d601f19601f820116820180604052508101906131769190613e6e565b60065f8373ffffffffffffffffffffffffffffffffffffffff1673ffffffffffffffffffffffffffffffffffffffff1681526020019081526020015f20819055506001805f8573ffffffffffffffffffffffffffffffffffffffff1673ffffffffffffffffffffffffffffffffffffffff1681526020019081526020015f205f6101000a81548160ff0219169083151502179055508273ffffffffffffffffffffffffffffffffffffffff167f3a4aaf3c8c287a23b905e95af5d9b37807cadef62732e09ef9ce59f5e28474f88560065f8573ffffffffffffffffffffffffffffffffffffffff1673ffffffffffffffffffffffffffffffffffffffff1681526020019081526020015f2054604051613290929190614516565b60405180910390a250505050565b5f60065f8473ffffffffffffffffffffffffffffffffffffffff1673ffffffffffffffffffffffffffffffffffffffff1681526020019081526020015f205490505f8473ffffffffffffffffffffffffffffffffffffffff1663ba087652835f8054906101000a900473ffffffffffffffffffffffffffffffffffffffff16306040518463ffffffff1660e01b815260040161333c9392919061453d565b6020604051808303815f875af1158015613358573d5f803e3d5ffd5b505050506040513d601f19601f8201168201806040525081019061337c9190613e6e565b90508060075f8873ffffffffffffffffffffffffffffffffffffffff1673ffffffffffffffffffffffffffffffffffffffff1681526020019081526020015f205f8282546133ca9190614390565b925050819055508273ffffffffffffffffffffffffffffffffffffffff1663e336ac44306040518263ffffffff1660e01b815260040161340a9190613c1c565b602060405180830381865afa158015613425573d5f803e3d5ffd5b505050506040513d601f19601f820116820180604052508101906134499190613e6e565b60065f8673ffffffffffffffffffffffffffffffffffffffff1673ffffffffffffffffffffffffffffffffffffffff1681526020019081526020015f20819055508373ffffffffffffffffffffffffffffffffffffffff16639dc29fac5f8054906101000a900473ffffffffffffffffffffffffffffffffffffffff167f0000000000000000000000000000000000000000000000000000000000000000600a6134f39190614108565b60065f8973ffffffffffffffffffffffffffffffffffffffff1673ffffffffffffffffffffffffffffffffffffffff1681526020019081526020015f20548661353c9190613ec6565b61354691906142e7565b6040518363ffffffff1660e01b81526004016135639291906143ea565b5f604051808303815f87803b15801561357a575f80fd5b505af115801561358c573d5f803e3d5ffd5b505050505f60065f8673ffffffffffffffffffffffffffffffffffffffff1673ffffffffffffffffffffffffffffffffffffffff1681526020019081526020015f205403613629575f60015f8873ffffffffffffffffffffffffffffffffffffffff1673ffffffffffffffffffffffffffffffffffffffff1681526020019081526020015f205f6101000a81548160ff0219169083151502179055505b8573ffffffffffffffffffffffffffffffffffffffff167fe5b754fb1abb7f01b499791d0b820ae3b6af3424ac1c59768edb53f4ec31a9298360075f8a73ffffffffffffffffffffffffffffffffffffffff1673ffffffffffffffffffffffffffffffffffffffff1681526020019081526020015f20546040516136ae929190614516565b60405180910390a2505050505050565b5f600b54905090565b5f6001905090565b80600b5550565b613759846323b872dd60e01b8585856040516024016136f793929190614572565b604051602081830303815290604052907bffffffffffffffffffffffffffffffffffffffffffffffffffffffff19166020820180517bffffffffffffffffffffffffffffffffffffffffffffffffffffffff838183161783525050505061386e565b50505050565b5f8373ffffffffffffffffffffffffffffffffffffffff1663dd62ed3e30856040518363ffffffff1660e01b815260040161379b9291906145a7565b602060405180830381865afa1580156137b6573d5f803e3d5ffd5b505050506040513d601f19601f820116820180604052508101906137da9190613e6e565b90506138688463095ea7b360e01b8585856137f59190614390565b6040516024016138069291906143ea565b604051602081830303815290604052907bffffffffffffffffffffffffffffffffffffffffffffffffffffffff19166020820180517bffffffffffffffffffffffffffffffffffffffffffffffffffffffff838183161783525050505061386e565b50505050565b5f6138cf826040518060400160405280602081526020017f5361666545524332303a206c6f772d6c6576656c2063616c6c206661696c65648152508573ffffffffffffffffffffffffffffffffffffffff166139349092919063ffffffff16565b90505f815114806138f05750808060200190518101906138ef91906145f8565b5b61392f576040517f08c379a000000000000000000000000000000000000000000000000000000000815260040161392690614693565b60405180910390fd5b505050565b606061394284845f8561394b565b90509392505050565b606082471015613990576040517f08c379a000000000000000000000000000000000000000000000000000000000815260040161398790614721565b60405180910390fd5b5f808673ffffffffffffffffffffffffffffffffffffffff1685876040516139b89190613da6565b5f6040518083038185875af1925050503d805f81146139f2576040519150601f19603f3d011682016040523d82523d5f602084013e6139f7565b606091505b5091509150613a0887838387613a14565b92505050949350505050565b60608315613a75575f835103613a6d57613a2d85613a88565b613a6c576040517f08c379a0000000000000000000000000000000000000000000000000000000008152600401613a6390614789565b60405180910390fd5b5b829050613a80565b613a7f8383613aaa565b5b949350505050565b5f808273ffffffffffffffffffffffffffffffffffffffff163b119050919050565b5f82511115613abc5781518083602001fd5b806040517f08c379a0000000000000000000000000000000000000000000000000000000008152600401613af091906147f9565b60405180910390fd5b5f80fd5b5f819050919050565b613b0f81613afd565b8114613b19575f80fd5b50565b5f81359050613b2a81613b06565b92915050565b5f73ffffffffffffffffffffffffffffffffffffffff82169050919050565b5f613b5982613b30565b9050919050565b613b6981613b4f565b8114613b73575f80fd5b50565b5f81359050613b8481613b60565b92915050565b5f805f60608486031215613ba157613ba0613af9565b5b5f613bae86828701613b1c565b9350506020613bbf86828701613b76565b9250506040613bd086828701613b76565b9150509250925092565b5f8115159050919050565b613bee81613bda565b82525050565b5f602082019050613c075f830184613be5565b92915050565b613c1681613b4f565b82525050565b5f602082019050613c2f5f830184613c0d565b92915050565b5f8060408385031215613c4b57613c4a613af9565b5b5f613c5885828601613b76565b9250506020613c6985828601613b1c565b9150509250929050565b613c7c81613afd565b82525050565b5f602082019050613c955f830184613c73565b92915050565b5f60208284031215613cb057613caf613af9565b5b5f613cbd84828501613b76565b91505092915050565b5f819050919050565b5f613ce9613ce4613cdf84613b30565b613cc6565b613b30565b9050919050565b5f613cfa82613ccf565b9050919050565b5f613d0b82613cf0565b9050919050565b613d1b81613d01565b82525050565b5f602082019050613d345f830184613d12565b92915050565b5f81519050919050565b5f81905092915050565b5f5b83811015613d6b578082015181840152602081019050613d50565b5f8484015250505050565b5f613d8082613d3a565b613d8a8185613d44565b9350613d9a818560208601613d4e565b80840191505092915050565b5f613db18284613d76565b915081905092915050565b5f819050602082019050919050565b5f819050919050565b5f613ddf8251613dcb565b80915050919050565b5f82821b905092915050565b5f613dfe82613d3a565b82613e0884613dbc565b9050613e1381613dd4565b92506020821015613e5357613e4e7fffffffffffffffffffffffffffffffffffffffffffffffffffffffffffffffff83602003600802613de8565b831692505b5050919050565b5f81519050613e6881613b06565b92915050565b5f60208284031215613e8357613e82613af9565b5b5f613e9084828501613e5a565b91505092915050565b7f4e487b71000000000000000000000000000000000000000000000000000000005f52601160045260245ffd5b5f613ed082613afd565b9150613edb83613afd565b9250828203905081811115613ef357613ef2613e99565b5b92915050565b5f82825260208201905092915050565b7f4c4d3a20496e76616c69642054617267657420616464726573730000000000005f82015250565b5f613f3d601a83613ef9565b9150613f4882613f09565b602082019050919050565b5f6020820190508181035f830152613f6a81613f31565b9050919050565b7f4c4d3a20496e73756666696369656e7420616d6f756e740000000000000000005f82015250565b5f613fa5601783613ef9565b9150613fb082613f71565b602082019050919050565b5f6020820190508181035f830152613fd281613f99565b9050919050565b5f8160011c9050919050565b5f808291508390505b600185111561402e5780860481111561400a57614009613e99565b5b60018516156140195780820291505b808102905061402785613fd9565b9450613fee565b94509492505050565b5f826140465760019050614101565b81614053575f9050614101565b81600181146140695760028114614073576140a2565b6001915050614101565b60ff84111561408557614084613e99565b5b8360020a91508482111561409c5761409b613e99565b5b50614101565b5060208310610133831016604e8410600b84101617156140d75782820a9050838111156140d2576140d1613e99565b5b614101565b6140e48484846001613fe5565b925090508184048111156140fb576140fa613e99565b5b81810290505b9392505050565b5f61411282613afd565b915061411d83613afd565b925061414a7fffffffffffffffffffffffffffffffffffffffffffffffffffffffffffffffff8484614037565b905092915050565b7f4e487b71000000000000000000000000000000000000000000000000000000005f52601260045260245ffd5b5f61418982613afd565b915061419483613afd565b9250826141a4576141a3614152565b5b828204905092915050565b7f4c6f616e204d616e616765723a20756e417574682048756200000000000000005f82015250565b5f6141e3601883613ef9565b91506141ee826141af565b602082019050919050565b5f6020820190508181035f830152614210816141d7565b9050919050565b7f503a4c4f434b45440000000000000000000000000000000000000000000000005f82015250565b5f61424b600883613ef9565b915061425682614217565b602082019050919050565b5f6020820190508181035f8301526142788161423f565b9050919050565b7f4c4d3a20756e417574682041646d696e000000000000000000000000000000005f82015250565b5f6142b3601083613ef9565b91506142be8261427f565b602082019050919050565b5f6020820190508181035f8301526142e0816142a7565b9050919050565b5f6142f182613afd565b91506142fc83613afd565b925082820261430a81613afd565b9150828204841483151761432157614320613e99565b5b5092915050565b7f4c4d3a20496e76616c696420616d6f756e7400000000000000000000000000005f82015250565b5f61435c601283613ef9565b915061436782614328565b602082019050919050565b5f6020820190508181035f83015261438981614350565b9050919050565b5f61439a82613afd565b91506143a583613afd565b92508282019050808211156143bd576143bc613e99565b5b92915050565b5f6040820190506143d65f830185613c73565b6143e36020830184613c0d565b9392505050565b5f6040820190506143fd5f830185613c0d565b61440a6020830184613c73565b9392505050565b5f6060820190506144245f830186613c73565b6144316020830185613c73565b61443e6040830184613c73565b949350505050565b7f4c4d3a20526564656d7074696f6e2050656e64696e67000000000000000000005f82015250565b5f61447a601683613ef9565b915061448582614446565b602082019050919050565b5f6020820190508181035f8301526144a78161446e565b9050919050565b7f4c4d3a20496e73756666696369656e74205368617265730000000000000000005f82015250565b5f6144e2601783613ef9565b91506144ed826144ae565b602082019050919050565b5f6020820190508181035f83015261450f816144d6565b9050919050565b5f6040820190506145295f830185613c73565b6145366020830184613c73565b9392505050565b5f6060820190506145505f830186613c73565b61455d6020830185613c0d565b61456a6040830184613c0d565b949350505050565b5f6060820190506145855f830186613c0d565b6145926020830185613c0d565b61459f6040830184613c73565b949350505050565b5f6040820190506145ba5f830185613c0d565b6145c76020830184613c0d565b9392505050565b6145d781613bda565b81146145e1575f80fd5b50565b5f815190506145f2816145ce565b92915050565b5f6020828403121561460d5761460c613af9565b5b5f61461a848285016145e4565b91505092915050565b7f5361666545524332303a204552433230206f7065726174696f6e20646964206e5f8201527f6f74207375636365656400000000000000000000000000000000000000000000602082015250565b5f61467d602a83613ef9565b915061468882614623565b604082019050919050565b5f6020820190508181035f8301526146aa81614671565b9050919050565b7f416464726573733a20696e73756666696369656e742062616c616e636520666f5f8201527f722063616c6c0000000000000000000000000000000000000000000000000000602082015250565b5f61470b602683613ef9565b9150614716826146b1565b604082019050919050565b5f6020820190508181035f830152614738816146ff565b9050919050565b7f416464726573733a2063616c6c20746f206e6f6e2d636f6e74726163740000005f82015250565b5f614773601d83613ef9565b915061477e8261473f565b602082019050919050565b5f6020820190508181035f8301526147a081614767565b9050919050565b5f81519050919050565b5f601f19601f8301169050919050565b5f6147cb826147a7565b6147d58185613ef9565b93506147e5818560208601613d4e565b6147ee816147b1565b840191505092915050565b5f6020820190508181035f83015261481181846147c1565b90509291505056fea2646970667358221220aaabe8ce55b1e8d18b3f5ab64f3bf9383f11022f1962159275c33e09d274186a64736f6c63430008150033608060405234801562000010575f80fd5b5060405162002213380380620022138339818101604052810190620000369190620002cd565b828281600390816200004991906200059b565b5080600490816200005b91906200059b565b5050508060065f6101000a81548173ffffffffffffffffffffffffffffffffffffffff021916908373ffffffffffffffffffffffffffffffffffffffff1602179055503360055f6101000a81548173ffffffffffffffffffffffffffffffffffffffff021916908373ffffffffffffffffffffffffffffffffffffffff1602179055505050506200067f565b5f604051905090565b5f80fd5b5f80fd5b5f80fd5b5f80fd5b5f601f19601f8301169050919050565b7f4e487b71000000000000000000000000000000000000000000000000000000005f52604160045260245ffd5b620001488262000100565b810181811067ffffffffffffffff821117156200016a576200016962000110565b5b80604052505050565b5f6200017e620000e7565b90506200018c82826200013d565b919050565b5f67ffffffffffffffff821115620001ae57620001ad62000110565b5b620001b98262000100565b9050602081019050919050565b5f5b83811015620001e5578082015181840152602081019050620001c8565b5f8484015250505050565b5f62000206620002008462000191565b62000173565b905082815260208101848484011115620002255762000224620000fc565b5b62000232848285620001c6565b509392505050565b5f82601f830112620002515762000250620000f8565b5b815162000263848260208601620001f0565b91505092915050565b5f73ffffffffffffffffffffffffffffffffffffffff82169050919050565b5f62000297826200026c565b9050919050565b620002a9816200028b565b8114620002b4575f80fd5b50565b5f81519050620002c7816200029e565b92915050565b5f805f60608486031215620002e757620002e6620000f0565b5b5f84015167ffffffffffffffff811115620003075762000306620000f4565b5b62000315868287016200023a565b935050602084015167ffffffffffffffff811115620003395762000338620000f4565b5b62000347868287016200023a565b92505060406200035a86828701620002b7565b9150509250925092565b5f81519050919050565b7f4e487b71000000000000000000000000000000000000000000000000000000005f52602260045260245ffd5b5f6002820490506001821680620003b357607f821691505b602082108103620003c957620003c86200036e565b5b50919050565b5f819050815f5260205f209050919050565b5f6020601f8301049050919050565b5f82821b905092915050565b5f600883026200042d7fffffffffffffffffffffffffffffffffffffffffffffffffffffffffffffffff82620003f0565b620004398683620003f0565b95508019841693508086168417925050509392505050565b5f819050919050565b5f819050919050565b5f620004836200047d620004778462000451565b6200045a565b62000451565b9050919050565b5f819050919050565b6200049e8362000463565b620004b6620004ad826200048a565b848454620003fc565b825550505050565b5f90565b620004cc620004be565b620004d981848462000493565b505050565b5b818110156200050057620004f45f82620004c2565b600181019050620004df565b5050565b601f8211156200054f576200051981620003cf565b6200052484620003e1565b8101602085101562000534578190505b6200054c6200054385620003e1565b830182620004de565b50505b505050565b5f82821c905092915050565b5f620005715f198460080262000554565b1980831691505092915050565b5f6200058b838362000560565b9150826002028217905092915050565b620005a68262000364565b67ffffffffffffffff811115620005c257620005c162000110565b5b620005ce82546200039b565b620005db82828562000504565b5f60209050601f83116001811462000611575f8415620005fc578287015190505b6200060885826200057e565b86555062000677565b601f1984166200062186620003cf565b5f5b828110156200064a5784890151825560018201915060208501945060208101905062000623565b868310156200066a578489015162000666601f89168262000560565b8355505b6001600288020188555050505b505050505050565b611b86806200068d5f395ff3fe608060405234801561000f575f80fd5b5060043610610109575f3560e01c8063704b6c02116100a0578063a457c2d71161006f578063a457c2d7146102b5578063a9059cbb146102e5578063b3ccbcfe14610315578063dd62ed3e14610333578063f851a4401461036357610109565b8063704b6c021461022f57806370a082311461024b57806395d89b411461027b5780639dc29fac1461029957610109565b8063313ce567116100dc578063313ce567146101a957806339509351146101c757806340c10f19146101f75780635772ae701461021357610109565b806306fdde031461010d578063095ea7b31461012b57806318160ddd1461015b57806323b872dd14610179575b5f80fd5b610115610381565b6040516101229190611224565b60405180910390f35b610145600480360381019061014091906112d5565b610411565b604051610152919061132d565b60405180910390f35b610163610433565b6040516101709190611355565b60405180910390f35b610193600480360381019061018e919061136e565b61043c565b6040516101a0919061132d565b60405180910390f35b6101b161046a565b6040516101be91906113d9565b60405180910390f35b6101e160048036038101906101dc91906112d5565b610472565b6040516101ee919061132d565b60405180910390f35b610211600480360381019061020c91906112d5565b6104a8565b005b61022d600480360381019061022891906113f2565b610545565b005b610249600480360381019061024491906113f2565b610617565b005b610265600480360381019061026091906113f2565b6106e9565b6040516102729190611355565b60405180910390f35b61028361072e565b6040516102909190611224565b60405180910390f35b6102b360048036038101906102ae91906112d5565b6107be565b005b6102cf60048036038101906102ca91906112d5565b61085b565b6040516102dc919061132d565b60405180910390f35b6102ff60048036038101906102fa91906112d5565b6108d0565b60405161030c919061132d565b60405180910390f35b61031d6108f2565b60405161032a919061142c565b60405180910390f35b61034d60048036038101906103489190611445565b610917565b60405161035a9190611355565b60405180910390f35b61036b610999565b604051610378919061142c565b60405180910390f35b606060038054610390906114b0565b80601f01602080910402602001604051908101604052809291908181526020018280546103bc906114b0565b80156104075780601f106103de57610100808354040283529160200191610407565b820191905f5260205f20905b8154815290600101906020018083116103ea57829003601f168201915b5050505050905090565b5f8061041b6109be565b90506104288185856109c5565b600191505092915050565b5f600254905090565b5f806104466109be565b9050610453858285610b88565b61045e858585610c13565b60019150509392505050565b5f6012905090565b5f8061047c6109be565b905061049d81858561048e8589610917565b610498919061150d565b6109c5565b600191505092915050565b60055f9054906101000a900473ffffffffffffffffffffffffffffffffffffffff1673ffffffffffffffffffffffffffffffffffffffff163373ffffffffffffffffffffffffffffffffffffffff1614610537576040517f08c379a000000000000000000000000000000000000000000000000000000000815260040161052e9061158a565b60405180910390fd5b6105418282610e7f565b5050565b60065f9054906101000a900473ffffffffffffffffffffffffffffffffffffffff1673ffffffffffffffffffffffffffffffffffffffff163373ffffffffffffffffffffffffffffffffffffffff16146105d4576040517f08c379a00000000000000000000000000000000000000000000000000000000081526004016105cb906115f2565b60405180910390fd5b8060055f6101000a81548173ffffffffffffffffffffffffffffffffffffffff021916908373ffffffffffffffffffffffffffffffffffffffff16021790555050565b60065f9054906101000a900473ffffffffffffffffffffffffffffffffffffffff1673ffffffffffffffffffffffffffffffffffffffff163373ffffffffffffffffffffffffffffffffffffffff16146106a6576040517f08c379a000000000000000000000000000000000000000000000000000000000815260040161069d906115f2565b60405180910390fd5b8060065f6101000a81548173ffffffffffffffffffffffffffffffffffffffff021916908373ffffffffffffffffffffffffffffffffffffffff16021790555050565b5f805f8373ffffffffffffffffffffffffffffffffffffffff1673ffffffffffffffffffffffffffffffffffffffff1681526020019081526020015f20549050919050565b60606004805461073d906114b0565b80601f0160208091040260200160405190810160405280929190818152602001828054610769906114b0565b80156107b45780601f1061078b576101008083540402835291602001916107b4565b820191905f5260205f20905b81548152906001019060200180831161079757829003601f168201915b5050505050905090565b60055f9054906101000a900473ffffffffffffffffffffffffffffffffffffffff1673ffffffffffffffffffffffffffffffffffffffff163373ffffffffffffffffffffffffffffffffffffffff161461084d576040517f08c379a00000000000000000000000000000000000000000000000000000000081526004016108449061158a565b60405180910390fd5b6108578282610fcd565b5050565b5f806108656109be565b90505f6108728286610917565b9050838110156108b7576040517f08c379a00000000000000000000000000000000000000000000000000000000081526004016108ae90611680565b60405180910390fd5b6108c482868684036109c5565b60019250505092915050565b5f806108da6109be565b90506108e7818585610c13565b600191505092915050565b60055f9054906101000a900473ffffffffffffffffffffffffffffffffffffffff1681565b5f60015f8473ffffffffffffffffffffffffffffffffffffffff1673ffffffffffffffffffffffffffffffffffffffff1681526020019081526020015f205f8373ffffffffffffffffffffffffffffffffffffffff1673ffffffffffffffffffffffffffffffffffffffff1681526020019081526020015f2054905092915050565b60065f9054906101000a900473ffffffffffffffffffffffffffffffffffffffff1681565b5f33905090565b5f73ffffffffffffffffffffffffffffffffffffffff168373ffffffffffffffffffffffffffffffffffffffff1603610a33576040517f08c379a0000000000000000000000000000000000000000000000000000000008152600401610a2a9061170e565b60405180910390fd5b5f73ffffffffffffffffffffffffffffffffffffffff168273ffffffffffffffffffffffffffffffffffffffff1603610aa1576040517f08c379a0000000000000000000000000000000000000000000000000000000008152600401610a989061179c565b60405180910390fd5b8060015f8573ffffffffffffffffffffffffffffffffffffffff1673ffffffffffffffffffffffffffffffffffffffff1681526020019081526020015f205f8473ffffffffffffffffffffffffffffffffffffffff1673ffffffffffffffffffffffffffffffffffffffff1681526020019081526020015f20819055508173ffffffffffffffffffffffffffffffffffffffff168373ffffffffffffffffffffffffffffffffffffffff167f8c5be1e5ebec7d5bd14f71427d1e84f3dd0314c0f7b2291e5b200ac8c7c3b92583604051610b7b9190611355565b60405180910390a3505050565b5f610b938484610917565b90507fffffffffffffffffffffffffffffffffffffffffffffffffffffffffffffffff8114610c0d5781811015610bff576040517f08c379a0000000000000000000000000000000000000000000000000000000008152600401610bf690611804565b60405180910390fd5b610c0c84848484036109c5565b5b50505050565b5f73ffffffffffffffffffffffffffffffffffffffff168373ffffffffffffffffffffffffffffffffffffffff1603610c81576040517f08c379a0000000000000000000000000000000000000000000000000000000008152600401610c7890611892565b60405180910390fd5b5f73ffffffffffffffffffffffffffffffffffffffff168273ffffffffffffffffffffffffffffffffffffffff1603610cef576040517f08c379a0000000000000000000000000000000000000000000000000000000008152600401610ce690611920565b60405180910390fd5b610cfa838383611190565b5f805f8573ffffffffffffffffffffffffffffffffffffffff1673ffffffffffffffffffffffffffffffffffffffff1681526020019081526020015f2054905081811015610d7d576040517f08c379a0000000000000000000000000000000000000000000000000000000008152600401610d74906119ae565b60405180910390fd5b8181035f808673ffffffffffffffffffffffffffffffffffffffff1673ffffffffffffffffffffffffffffffffffffffff1681526020019081526020015f2081905550815f808573ffffffffffffffffffffffffffffffffffffffff1673ffffffffffffffffffffffffffffffffffffffff1681526020019081526020015f205f82825401925050819055508273ffffffffffffffffffffffffffffffffffffffff168473ffffffffffffffffffffffffffffffffffffffff167fddf252ad1be2c89b69c2b068fc378daa952ba7f163c4a11628f55a4df523b3ef84604051610e669190611355565b60405180910390a3610e79848484611195565b50505050565b5f73ffffffffffffffffffffffffffffffffffffffff168273ffffffffffffffffffffffffffffffffffffffff1603610eed576040517f08c379a0000000000000000000000000000000000000000000000000000000008152600401610ee490611a16565b60405180910390fd5b610ef85f8383611190565b8060025f828254610f09919061150d565b92505081905550805f808473ffffffffffffffffffffffffffffffffffffffff1673ffffffffffffffffffffffffffffffffffffffff1681526020019081526020015f205f82825401925050819055508173ffffffffffffffffffffffffffffffffffffffff165f73ffffffffffffffffffffffffffffffffffffffff167fddf252ad1be2c89b69c2b068fc378daa952ba7f163c4a11628f55a4df523b3ef83604051610fb69190611355565b60405180910390a3610fc95f8383611195565b5050565b5f73ffffffffffffffffffffffffffffffffffffffff168273ffffffffffffffffffffffffffffffffffffffff160361103b576040517f08c379a000000000000000000000000000000000000000000000000000000000815260040161103290611aa4565b60405180910390fd5b611046825f83611190565b5f805f8473ffffffffffffffffffffffffffffffffffffffff1673ffffffffffffffffffffffffffffffffffffffff1681526020019081526020015f20549050818110156110c9576040517f08c379a00000000000000000000000000000000000000000000000000000000081526004016110c090611b32565b60405180910390fd5b8181035f808573ffffffffffffffffffffffffffffffffffffffff1673ffffffffffffffffffffffffffffffffffffffff1681526020019081526020015f20819055508160025f82825403925050819055505f73ffffffffffffffffffffffffffffffffffffffff168373ffffffffffffffffffffffffffffffffffffffff167fddf252ad1be2c89b69c2b068fc378daa952ba7f163c4a11628f55a4df523b3ef846040516111789190611355565b60405180910390a361118b835f84611195565b505050565b505050565b505050565b5f81519050919050565b5f82825260208201905092915050565b5f5b838110156111d15780820151818401526020810190506111b6565b5f8484015250505050565b5f601f19601f8301169050919050565b5f6111f68261119a565b61120081856111a4565b93506112108185602086016111b4565b611219816111dc565b840191505092915050565b5f6020820190508181035f83015261123c81846111ec565b905092915050565b5f80fd5b5f73ffffffffffffffffffffffffffffffffffffffff82169050919050565b5f61127182611248565b9050919050565b61128181611267565b811461128b575f80fd5b50565b5f8135905061129c81611278565b92915050565b5f819050919050565b6112b4816112a2565b81146112be575f80fd5b50565b5f813590506112cf816112ab565b92915050565b5f80604083850312156112eb576112ea611244565b5b5f6112f88582860161128e565b9250506020611309858286016112c1565b9150509250929050565b5f8115159050919050565b61132781611313565b82525050565b5f6020820190506113405f83018461131e565b92915050565b61134f816112a2565b82525050565b5f6020820190506113685f830184611346565b92915050565b5f805f6060848603121561138557611384611244565b5b5f6113928682870161128e565b93505060206113a38682870161128e565b92505060406113b4868287016112c1565b9150509250925092565b5f60ff82169050919050565b6113d3816113be565b82525050565b5f6020820190506113ec5f8301846113ca565b92915050565b5f6020828403121561140757611406611244565b5b5f6114148482850161128e565b91505092915050565b61142681611267565b82525050565b5f60208201905061143f5f83018461141d565b92915050565b5f806040838503121561145b5761145a611244565b5b5f6114688582860161128e565b92505060206114798582860161128e565b9150509250929050565b7f4e487b71000000000000000000000000000000000000000000000000000000005f52602260045260245ffd5b5f60028204905060018216806114c757607f821691505b6020821081036114da576114d9611483565b5b50919050565b7f4e487b71000000000000000000000000000000000000000000000000000000005f52601160045260245ffd5b5f611517826112a2565b9150611522836112a2565b925082820190508082111561153a576115396114e0565b5b92915050565b7f546f6b656e3a204c6f616e4d616e6167657220756e41757468000000000000005f82015250565b5f6115746019836111a4565b915061157f82611540565b602082019050919050565b5f6020820190508181035f8301526115a181611568565b9050919050565b7f546f6b656e3a2041646d696e20756e41757468000000000000000000000000005f82015250565b5f6115dc6013836111a4565b91506115e7826115a8565b602082019050919050565b5f6020820190508181035f830152611609816115d0565b9050919050565b7f45524332303a2064656372656173656420616c6c6f77616e63652062656c6f775f8201527f207a65726f000000000000000000000000000000000000000000000000000000602082015250565b5f61166a6025836111a4565b915061167582611610565b604082019050919050565b5f6020820190508181035f8301526116978161165e565b9050919050565b7f45524332303a20617070726f76652066726f6d20746865207a65726f206164645f8201527f7265737300000000000000000000000000000000000000000000000000000000602082015250565b5f6116f86024836111a4565b91506117038261169e565b604082019050919050565b5f6020820190508181035f830152611725816116ec565b9050919050565b7f45524332303a20617070726f766520746f20746865207a65726f2061646472655f8201527f7373000000000000000000000000000000000000000000000000000000000000602082015250565b5f6117866022836111a4565b91506117918261172c565b604082019050919050565b5f6020820190508181035f8301526117b38161177a565b9050919050565b7f45524332303a20696e73756666696369656e7420616c6c6f77616e63650000005f82015250565b5f6117ee601d836111a4565b91506117f9826117ba565b602082019050919050565b5f6020820190508181035f83015261181b816117e2565b9050919050565b7f45524332303a207472616e736665722066726f6d20746865207a65726f2061645f8201527f6472657373000000000000000000000000000000000000000000000000000000602082015250565b5f61187c6025836111a4565b915061188782611822565b604082019050919050565b5f6020820190508181035f8301526118a981611870565b9050919050565b7f45524332303a207472616e7366657220746f20746865207a65726f20616464725f8201527f6573730000000000000000000000000000000000000000000000000000000000602082015250565b5f61190a6023836111a4565b9150611915826118b0565b604082019050919050565b5f6020820190508181035f830152611937816118fe565b9050919050565b7f45524332303a207472616e7366657220616d6f756e74206578636565647320625f8201527f616c616e63650000000000000000000000000000000000000000000000000000602082015250565b5f6119986026836111a4565b91506119a38261193e565b604082019050919050565b5f6020820190508181035f8301526119c58161198c565b9050919050565b7f45524332303a206d696e7420746f20746865207a65726f2061646472657373005f82015250565b5f611a00601f836111a4565b9150611a0b826119cc565b602082019050919050565b5f6020820190508181035f830152611a2d816119f4565b9050919050565b7f45524332303a206275726e2066726f6d20746865207a65726f206164647265735f8201527f7300000000000000000000000000000000000000000000000000000000000000602082015250565b5f611a8e6021836111a4565b9150611a9982611a34565b604082019050919050565b5f6020820190508181035f830152611abb81611a82565b9050919050565b7f45524332303a206275726e20616d6f756e7420657863656564732062616c616e5f8201527f6365000000000000000000000000000000000000000000000000000000000000602082015250565b5f611b1c6022836111a4565b9150611b2782611ac2565b604082019050919050565b5f6020820190508181035f830152611b4981611b10565b905091905056fea2646970667358221220ccb9fef702a2f9a141283015670c6924fba459d67d6acfb145dc8f25a8304bda64736f6c63430008150033",
  "linkReferences": {},
  "deployedLinkReferences": {}
}